:040000000CD0000020
:020008007FD1A6
:100018007FD194908B80730ED36EF86A030EF76EBF
:10002800000EF66EFC0E0B6EFE0E0A6E15EC01F05D
:10003800FE0EF66EFF0EF76E0900F550001804E18B
:100048000900F55001184AE03CD80400ACA2FDD7DD
:10005800B880B8A005D0B8AEFCD7B890B89EF5D790
:10006800AE50AE5000EE09F0090E026E22D80550CF
:10007800EE6EE9500B0A0BE10950020A06E009503E
:10008800050A03E00950070A02E10A500226022E77
:10009800EDD726D8026E550E07D800EE09F0EE50BF
:1000A80003D8022EFCD7D1D704009EA8FDD7AD6E89
:1000B80012000400ABB2FF009EAAFED7AE50056E38
:1000C80012008B8C948C948E0F013A9D3A9F900E5F
:1000D800AB6E260EAC6E080EB86E12008B900CD16B
:1000E8000E50F66EA96E0F50F76E10C0F8FF00EEB6
:1000F80012F00A50026E0950090803E2FF0E096E59
:10010800010CFB6A010EFA6E09441A0FD8B0FA2ADC
:10011800F96E09D044D04BD05AD064D06DD03FD0BE
:1001280076D07FD0FF00010E126E010E136E146A96
:10013800156A166A176A3F0EF86EFF0EF76EFE0E06
:10014800F66E0900F5CF18F00900F5CF19F01A6A14
:100158001B6A400E1C6E400E1D6E200EF86EF76A6C
:10016800F66A0900F5CF1EF009001E38F5101E6E5C
:100178000900F5CF1FF009001F38F5101F6E0900A0
:10018800F5CF20F009002038F510206E0900F5CFD2
:1001980021F009002138F510216E190E120009000E
:1001A800F5CFEEFF022EFBD70A50090F1200EECF53
:1001B800F5FF0D00024E03D0F6503F0BF8E10A00A0
:1001C800840EA66E49D809000252F1E141D0940E7E
:1001D800A66E42D8400EF626E86AF722F822022ECA
:1001E800F6D736D0A66AA680A8CFEEFFA92A022E97
:1001F800F9D70A50090F1200EECFA8FF040EA66E19
:100208002BD8A6B2FED7A92A022EF6D721D0C40E23
:10021800A66EEECFF5FF0C001FD80900022EF7D707
:1002280017D0006A016A0A900A52D8A40B2A09005A
:10023800F55000260900F5500122020E0A5EF7E18A
:100248000B2EF5D700C0EEFF01C0EEFF0B0E12001B
:10025800010E126E0A0E120004000C50A76E0D500B
:08026800A76EA682000012003F
:10030000DFEF01F0FFFFFFFFFACF2AF0FBCF2BF06A
:10031000E1CF2CF0E2CF2DF0D9CF2EF0DACF2FF0B5
:10032000F3CF30F0F4CF31F01DEEC4F0F2BC9DA05D
:1003300005D09EA003D0DFEC69F030D0F2BC9DAABE
:1003400005D09EAA03D056EC4FF028D0F2BC9DA851
:1003500005D09EA803D0C8EC61F020D0F0B6F0A084
:1003600003D029EC6BF01AD0F0B8F0A203D026EC41
:100370006BF014D0F2B6F2A003D0C9EC69F00ED045
:10038000F2BC9DA605D09EA603D051EC1DF006D070
:10039000F2BCA0A603D0A1B656EC6BF031C0F4FFBE
:1003A00030C0F3FF2FC0DAFF2EC0D9FF2DC0E2FF0F
:1003B0002CC0E1FF2BC0FBFF2AC0FAFF11001DEE8D
:1003C00008F0E2EF2EF020EC6BF029EEDBF0DFB06E
:1003D00049D302EC06F0696F6939E832070BE80689
:1003E00001E09AD029EEFDF0DF5001E095D0000148
:1003F000F00501016F6F1AD00001F051EE25F16F89
:10040000000EEF21F26F01016F510001F15D8C6F61
:10041000F251D8A0F20549EC51F076EC65F0100EDF
:1004200001016F6502D06F5F01D06F6B6F51E4E126
:10043000220E0001D66F0A0ED76FEEC0D8F0EFC0C3
:10044000D9F0F051FC0FDA6FE6EC55F0D6C072F13E
:10045000D7C073F1D8C074F1D9C075F1CCDBA1EC71
:100460005CF04BDB72516A1909E173516B1906E1BB
:1004700074516C1903E175516D1910E02DDB050AFB
:1004800002E13FEF63F028DB030AD8A412002AEE52
:10049000E5F0DF50D8B412003FEF63F01DDB030A34
:1004A00004E1DBEC08F0A8EC69F0EEC076F1EFC0F7
:1004B00077F1010120EE07F0CDDBDECFFEF9DECFD4
:1004C000FFF9DECF00FADDCF01FA20EE0CF0C2DB3F
:1004D000DF500F0BD3EC58F0B5DBDF38070B000112
:1004E000606FB0DBDF500F0B18EC66F076C19EF04A
:1004F00077C19FF0F051E8EC25F076C1A0F077C10C
:10050000A1F01EEC51F0E66A00EC35F0000EF9ECBB
:1005100020F0DEEC20F0000C6939E832070B030A0A
:1005200007E06939E832070B050A02E036EF48F0C8
:10053000000EE8CF8BFAEEC079F1EFC07AF1EAC98C
:10054000E8FF020A01E0F2D02AEE42F000EE01F0EC
:100550003ADB09E1DE50EE1806E1DE50EE1803E169
:10056000DE50EE18D8A4E2D029EEDCF0DFA4DED015
:1005700079C160F07AC161F0C6EC52F0000906E181
:1005800082EC16F00909DF6E26EF50F0010198DACF
:10059000DECFF1F0CBDA010E716F19EC3FF0F5DA36
:1005A000A5DA100E646FCDEC53F0B1DACDEC53F058
:1005B000460EC86F0A0EC96FCA0E0CDB8DEC12F026
:1005C000E8DA94DA040E646FCDEC53F014DBA1EC9E
:1005D0005CF093DA6A517219D3E16B517319D0E16F
:1005E0006C517419CDE16D517519CAE129EEE6F02F
:1005F000DFDA1DE329EEE6F020DB62DA14DB2AEE17
:1006000082F05FDB0DE20101BD51BE11B9E087EC64
:1006100016F0050EC56F01D8B3D70500FA6E7ED06F
:1006200001014EDADECFE6F9DDCFE7F918D048DA7E
:10063000DE50DE1010E129EEE6F0DE280CE1DE28C7
:100640000AE1000EE8CFE6F9E8CFE7F929EEE8F095
:10065000DE2ADD2204D0BD51BE11D9E191D729EEA9
:10066000E6F0DE2807E1DE2805E1DE2803E1DE28EA
:1006700001E1F1D731DA080A08E130EC1CF0A8EC0E
:1006800069F0FADAA8EC69F006D026DA030A03E189
:10069000F3DAA8EC69F000DB1ADA09DABADA03E176
:1006A000F251F41925E0AEDA666F0001EE4BEF2B44
:1006B000F051F40F0101786F190E6E6FEEC0A0F0CB
:1006C000D6DAA26F010EA36FE6C9A4F0E7C9A5F0C0
:1006D000E8C9A6F0E9C9A7F0560EA86F0A0E35DAE8
:1006E000010EAD6FCEEC2AF0FF0EEE25B8DA01D088
:1006F000E3DA29EEDBF0DF82F4D9BD51BE1101E16E
:100700003FD770C1C2F071C1C3F078C1C4F0010E0F
:100710000001C56F01D834D70500FA6E0101BD5143
:10072000FD6EBE51FE6EFF6AFA50120029EEFEF019
:1007300000EE01F048DA09E1DE50EE1806E1DE5085
:10074000EE1803E1DE50EE1808E036EC48F0EAC996
:10075000E8FF020A01E114D71200B2D9DECFF1F0AE
:10076000E5D9716B010E19EC3FF00FDABFD9100E0D
:10077000646FCDEC53F0CBD9CDEC53F05FEC12F0BD
:1007800029DA8DEC12F005DAB1D9040E646FCDECE4
:1007900053F031DAA1EC5CF0B0D96A51721909E179
:1007A0006B51731906E16C51741903E16D517519A0
:1007B00003E036EC48F0CBD729EEE2F0F9D928E394
:1007C00029EEE2F03ADA7CD92EDA2AEE80F079DAF4
:1007D0001BE26AEC48F085D90101BD51BE1111E060
:1007E00066EC48F087EC16F0C56B01D80AD005001E
:1007F000FA6E0101BD51FD6EBE51FE6EFF6AFA50E8
:10080000120072EC48F025D001015AD94BDA15D00C
:1008100057D9DE50DE100EE129EEE2F0DE280AE1C3
:10082000DE2808E14DD93EDA29EEE4F0DE2A000E9A
:10083000DD2203D036EC48F08AD7DB6BDA6B29EE89
:10084000E2F0DE280AE1DE2808E1DE2806E1DE2803
:1008500004E129EEDCF0DF827AD73ED9030A03E116
:100860000BDAA8EC69F0010EE8CFCCFA79C160F0A0
:100870007AC161F0FFEC56F0010119D91DE017D9DA
:1008800079250001F16F22DAF26F080EF125D96E99
:10089000000EF221DA6EDF5010E0080E010179251A
:1008A0000001A76F13DAA86F010101D90001A96F38
:1008B00046EC1EF0FCD901D0EFD909D9F8D8A9D956
:1008C00003E1F251F4194FE09DD9666F0001EE4B40
:1008D000EF2B0101ECD80001F16FF151F05DF40F45
:1008E0000101786FE4D8190F6E6F66510EE0EEC00B
:1008F000A0F0BDD93ED97DEC12F027D9AD6BCEEC7E
:100900002AF0FF0EEE25ABD92FD00001E0D8CFD8CA
:100910000001F36FF46B0D0EF327000EF423F15179
:10092000F35DF451800AF56FF251800AF5591BE22C
:10093000EEC0A0F0EFC0A1F001017805000119D9C7
:1009400079EC12F002D9AD6BCEEC2AF00101AFD8F0
:100950000AE1EEC0A7F0EFC0A8F078050001A96F8A
:1009600046EC1EF0A4D9A8D9B1EC68F03ED9E8CF86
:10097000E2FA29EED8F0DF9829EEDBF0DF8229EEEB
:10098000D8F0DFA043D020EE05F07951D9267A5176
:10099000DA22DFAA38D029EED8F0DF90010E686F96
:1009A000A0D8BD51BE110CE0D8D801D809D005009F
:1009B000FA6EBD51FD6EBE51FE6EFF6AFA50120016
:1009C00029EEDBF0DF9229EEDAF0DFAAC0D629EEBD
:1009D000D8F0DFBABCD629EED8F0DFB204D029EEC9
:1009E000D8F0DFA6B4D6D9D80BEC3CF0000908E16A
:1009F000000E4DD909EC37F029EED8F0DF96A7D6D6
:100A0000F1EC2DF0A4D6EDEC50F0A1D6010E686FFC
:100A100068D8BD51BE110CE0A0D801D809D005009E
:100A2000FA6EBD51FD6EBE51FE6EFF6AFA501200A5
:100A300029EEDAF0DFAA8BD629EED8F0DFBA87D616
:100A400029EED8F0DFB204D029EED8F0DFA67FD6A9
:100A5000A4D80BEC3CF00009D3E1000E18D909EC46
:100A600037F0CAD70101BD51BE11D8B412001DEC38
:100A70006BF00001F16FF1B70DD002D9030EC56F15
:100A80000500FA6E0101BD51FD6EBE51FE6EFF6A9A
:100A9000FA501200F5D8020EC56F0500FA6E01017A
:100AA000BD51FD6EBE51FE6EFF6AFA50120020EE7F
:100AB00005F07951D9267A51DA22DF500F0B120056
:100AC00020EE06F07951D9267A51DA221200F0513F
:100AD000F16FF26B0101120029EEDAF0DF500F0B1B
:100AE000120029EEDAF0F00EDF16F00C616FCA0E7C
:100AF000626F020E636F656B12006BC06AF16CC0AF
:100B00006BF16DC06CF16EC06DF101011200FA0E57
:100B1000606F0A0E616FEEC062F0EFC063F0FC0E12
:100B2000F025646F656BFF0E6523FF0CDDCFF2F0DF
:100B3000F1C06BF0F2C06CF000016D6B6E6BF051A8
:100B4000FC0F6F6F490E706F490CA96F6EC1AAF050
:100B5000EA0EAB6F0A0EAC6F120029EED8F0DF9AE6
:100B600070C1C2F071C1C3F078C1C4F068C1C5F0F2
:100B70001200A26F010EA36FE2C9A4F0E3C9A5F0B1
:100B8000E4C9A6F0E5C9A7F0010CEA0E606F0A0EF1
:100B90001200720E606F010E1200010E0001A76FAD
:100BA000670EA86F010EA96F2AEEE1F0DF50120068
:100BB00000EE06F07951E9267A51EA22DE50EE5C29
:100BC000DE50EE5812007951E9267A51EA22DE50C1
:100BD000EE181200CA6F020ECB6FEA0ECC6F0A0E2F
:100BE000CD6FF0510C0FCE6F1200000EE8CFC4FA9B
:100BF000E8CFC5FA000CEEC06BF0EFC06CF0F0C0AF
:100C00006DF01200EEC0D9FFEFC0DAFFDF50010136
:100C100012000001F36FF46B0C0EF327000EF423A7
:100C2000F151F3191200DECFF3F0DDCFF4F0000143
:100C3000F151F35FF251F45B1200DECFF1F0DDCF42
:100C4000F2F01200010120EE0BF07651D926775117
:100C5000DA2212007651D9267751DA2212000101E8
:100C6000706FFF0E0001EF210101716F1200EFC0E4
:100C7000A1F07805000112002AEED9F0DF50120031
:100C8000EEC0C2F0EFC0C3F0F0C0C4F01200E46FD9
:100C9000E56FE66FE76F1200080E0001EE27000E09
:100CA000EF23000CDECFE2F9DDCFE3F91200A7C09D
:100CB000EEF0A8C0EFF012000101786B706B716B61
:100CC0001200F351DE5CF451DE581200000E0101F7
:100CD0007A210001120029EEDBF0DFB0AFD1000174
:100CE000E76BE86BE96BEA6BEB6BF469F569F66946
:100CF000F769000EE8CFE5FA82EC16F00209DF6E24
:100D0000CECAF8F029EED8F0DFA449D02AEE7CF064
:100D1000F4D929EEF3F0BAD9D5EC4AF0F3D93BEC8B
:100D20001CF005EC5FF02AEE7EF0E7D929EEFCF02E
:100D3000ADD9D5EC4AF0E6D93EDA05EC5FF03BECF4
:100D40001CF021EC4FF037DA21EC4FF0F85125DAA6
:100D5000080E38EC44F00EE02AEECFF0CED92FDAB0
:100D6000946B956BC80EDBD9F9EC58F0FBD9F9EC14
:100D700058F00AD0F85111DACED9BFD9D5D9F9EC4B
:100D800058F0F0D9F9EC58F0F851AFD992C0DEFF25
:100D900093C0DEFF94C0DEFF95C0DEFF2AD02AEEAE
:100DA00078F0ABD929EEF3F071D9D5EC4AF0AAD995
:100DB00030EC1CF005EC5FF02AEE7AF09ED929EEBB
:100DC000FCF064D9D5EC4AF09DD93CEC06F005EC7A
:100DD0005FF030EC1CF021EC4FF03CEC06F021EC25
:100DE0004FF0F851DAD997D988D99ED9F9EC58F053
:100DF000BDD7DDD99FEC68F0000960E0D8D9A8EC38
:100E000069F0D5D9FDEC60F089C0ECF08AC0EDF056
:100E10008BC0EEF08CC0EFF0EF5107E11F0EEC5DE0
:100E2000AC0EED59DF0EEE591BE3ECC0D6F0EDC071
:100E3000D7F0EEC0D8F0EFC0D9F00D0E05D0D890A5
:100E4000D933D833D733D633E82EF9D7B8D9D8C069
:100E500094F0D9C095F07D0E62D9F9EC58F012D01B
:100E6000ECC092F0EDC093F0EEC094F0EFC095F0BE
:100E70007D0E55D9F9EC58F00D0E02D014EC1CF093
:100E8000E82EFCD792C0DFF093C0E0F094C0E1F010
:100E900095C0E2F0BCCAD6F0BDCAD7F0BECAD8F041
:100EA000BFCAD9F0DF51D65DE86FE051D759E96F7D
:100EB000E151D859EA6FE251D959EB6FF86BF8510B
:100EC0000BEC1AF061EC3DF055E1F8510ED9F7EC5E
:100ED00019F050E02AEECEF0F851DE182FE0F8516C
:100EE00004D9DE50E85DDE50E959DE50EA59DE50A3
:100EF000EB5921E2F851F9D8DECFD6F0DECFD7F0AA
:100F0000DECFD8F0DECFD9F0E851D65DDA6FE95107
:100F1000D759DB6FEA51D859DC6FEB51D959DD6FE6
:100F2000F851E3D8DAC0DEFFDBC0DEFFDCC0DEFF55
:100F3000DDC0DEFF03D0F851D8D834D9F851D5D868
:100F4000DE50F45DDE50F559DE50F659DE50F759AB
:100F500011E3F851CAD8F7EC19F00CE0F851C5D8F4
:100F6000DECFF4F0DECFF5F0DECFF6F0DECFF7F037
:100F7000010EE76FF82B0F0EF865A1D7E70554E1D6
:100F8000F4C0BCFAF5C0BDFAF6C0BEFAF7C0BFFAAD
:100F9000F75106E1F429FF0EF5590F0EF65912E349
:100FA000F4C060F0F5C061F0F6C062F0F7C063F025
:100FB0007CEC16F0D5EC4AF00C0EE8EC21F0E82EB3
:100FC000FCD71CD0F4C0D6F0F5C0D7F0F6C0D8F0EE
:100FD000F7C0D9F00C0ED890D637D737D837D937D5
:100FE000E82EF9D7D6C060F0D7C061F0D8C062F063
:100FF000D9C063F07CEC16F0D5EC4AF060C0E3F0A9
:1010000061C0E4F062C0E5F063C0E6F0E3C06DF0FB
:10101000E4C06EF0E5C06FF0E6C070F0C8D805EC33
:101020005FF0C5D821EC4FF06EEC48F0D8A4120068
:1010300082EC16F00809DF6E26EF50F01DEC6BF025
:101040000001D66FD6A911D0BFD8D8B4120087EC52
:1010500016F0020EC56F0500FA6E0101BD51FD6E5E
:10106000BE51FE6EFF6AFA501200AED8D8B412001C
:1010700087EC16F0030EC56F0500FA6E0101BD5135
:10108000FD6EBE51FE6EFF6AFA501200DF50D86F3F
:10109000D96BE40ED825F66EF60ED921F76EF86AF4
:1010A000000EF8220800F5CFDAF0D651DA25DB6F12
:1010B000000EDABFFF0ED721DC6FDD6BDE6B0C0E8E
:1010C000D890DB37DC37DD37DE37E82EF9D7DBC0E9
:1010D00060F0DCC061F0DDC062F0DEC063F07D0E68
:1010E000646F656B666B676B7D0C120DC40EF32429
:1010F000D96E080EF420DA6E1200DECFD6F0DDCF06
:10110000D7F0120060C06DF061C06EF062C06FF089
:1011100063C070F01200080EF420DA6E1200966FB1
:10112000976B986B996B1200D651D86FD751D96FC6
:10113000DA6BDB6BD829926F000ED921936F000E0A
:10114000DA21946F000EDB21956F2AEECFF0DECF0F
:10115000DCF0DDCFDDF0DCC096F0DDC097F0986B01
:10116000996B1200FF0E9225F06FFF0E9321F16F25
:10117000FF0E9421F26FFF0E9521F36FF0C092F0F5
:10118000F1C093F0F2C094F0F3C095F0D4C096F0A3
:10119000D5C097F0986B996B1200120DC20EF32414
:1011A000D96E1200DE6ADE6ADE6ADD6A12002AEE9D
:1011B000DDF0DF5012002AEED7F0DF501200D6C06B
:1011C00092F0D7C093F012000101BD51BE11120080
:1011D0007E6B7F6B766B776B010E0001616FB40ED7
:1011E000606F6269FFEC5BF0010E0001616FB50E8C
:1011F000606F6269FFEC5BF0CFEC6AF0FFD9762795
:10120000000E77230001616B606B79C162F0FFEC27
:101210005BF001017E4B7F2B7A0E0001606F010EA7
:10122000616F790E626F010E636F72EC64F0010101
:101230007951D3D9FFEC5BF001017E4B7F2B806BA2
:10124000030E806501D005D098D9FFEC5BF0E1D9A1
:10125000F7D78FC27AF190C27BF17C6B7D6B7B51AB
:101260007627C5D97BC162F0FFEC5BF001017E4BB4
:101270007F2B7A517627BBD97AC162F0FFEC5BF005
:1012800001017E4B7F2BD7EC6AF0796F7951A5D99C
:10129000FFEC5BF001017E4B7F2B45EC69F060C0F9
:1012A0007AF161C07BF162C07CF163C07DF1806B3B
:1012B000030E806501D005D060D9FFEC5BF0A9D9A1
:1012C000F7D760EC69F060C07AF161C07BF162C071
:1012D0007CF163C07DF1806B030E806501D005D089
:1012E0004CD9FFEC5BF095D9F7D7660E00016B6F18
:1012F000010E6C6F89EC68F00101806B070E806550
:1013000001D005D052D9FFEC5BF083D9F7D7660E38
:1013100000016B6F010E6C6FE3EC66F00101806BF6
:10132000070E806501D005D040D9FFEC5BF071D984
:10133000F7D7660E00016B6F010E6C6F73EC68F0EF
:101340000101806B0F0E806501D005D02ED9FFEC16
:101350005BF05FD9F7D7660E00016B6F010E6C6F03
:101360005DEC68F00101806B0F0E806501D005D047
:101370001CD9FFEC5BF04DD9F7D7660E00016B6FFF
:10138000010E6C6F68EC68F00101806B0F0E8065D8
:1013900001D005D00AD9FFEC5BF03BD9F7D769EC57
:1013A00069F060C07AF161C07BF162C07CF163C01A
:1013B0007DF1806B030E806501D005D0DED8FFEC97
:1013C0005BF027D9F7D7660E00016B6F010E6C6FCB
:1013D000A7EC66F00101806B0F0E806501D005D08F
:1013E000E4D8FFEC5BF015D9F7D7660E00016B6F00
:1013F000010E6C6F98EC66F00101806B0F0E80653A
:1014000001D005D0D2D8FFEC5BF003D9F7D757EC69
:1014100069F060C07AF161C07BF162C07CF163C0A9
:101420007DF1806B030E806501D005D0A6D8FFEC5E
:101430005BF0EFD8F7D75FEC6AF0796F7951CDD8D0
:10144000FFEC5BF001017E4B7F2B786B010E786522
:1014500001D01DD07851EFEC64F0D0D8BED8FFECAD
:101460005BF0E5D807EC66F0C9D8B7D8FFEC5BF0C5
:10147000DED8AFEC60F0D2D8030E806501D005D085
:101480007CD8FFEC5BF0C5D8F7D7782BDFD7786B2B
:101490001D0E786501D03AD07851020F5BEC67F0F1
:1014A00060C07AF161C07BF162C07CF163C07DF104
:1014B0000101806B030E806501D005D05ED8FFEC82
:1014C0005BF0A7D8F7D77851020FAFEC60F0A6D841
:1014D000030E806501D005D050D8FFEC5BF099D8A1
:1014E000F7D77851020F07EC66F088D876D8FFEC72
:1014F0005BF09DD8020FEFEC64F080D86ED8FFEC63
:101500005BF001017E4B7F2B782BC2D7D3EC6AF0C6
:10151000796F795162D8FFEC5BF001017E4B7F2B34
:1015200069EC6AF0796F795158D8FFEC5BF00101F2
:101530007E4B7F2B762904E1772902E1766B776B6E
:101540007EC160F07FC161F076C162F0FFEC5BF0BC
:1015500001017E4B7F2B7EC160F07FC161F077C1BE
:1015600062F0FFEC5BF001017E4B7F2B000120EE6F
:1015700006F0EE51D926EF5145D07A0E8025D96E6E
:10158000DA6A010EDA22DF507627000E77237EC159
:1015900060F07FC161F07A0E8025D96EDA6A010EA3
:1015A000DA22DF500001626F1200660E8025D96ECC
:1015B000DA6A010EDA22DF507627000E77237EC129
:1015C00060F07FC161F0660E8025D96EDA6A010E87
:1015D000DA22DF500001626F12007627000E7723B7
:1015E0007EC160F07FC161F079C162F0000C000E35
:1015F00077237EC160F07FC161F0000C0101796F3B
:1016000079511200DA2200C2DEFF01C2DEFFDD6A7C
:10161000120001017E4B7F2B802B120063C07AF1F8
:1016200064C07BF101017C6B7D6B806B120001015A
:101630007E4B7F2B7851120005EC20F0D4EC35F076
:10164000C6EC22F0BEEC33F00201AE516FEC37F085
:101650000201AB0501E06BD1A1C262F0390E1FECB3
:1016600067F0B5C2A0F0010E0001A0170201D890EA
:10167000B4350001A16F0201AD39CBD91D0E1FECAD
:1016800067F09FC0A0F0030E0001A017AFC2A1F049
:10169000010EA117D890A137D890A1370201AC391B
:1016A000B8D91E0E1FEC67F00201B151B21142E031
:1016B000B1C2A3F0B2C2A4F00001A56BA66B24D006
:1016C0009FD97D0E00018FEC08F0F9EC58F011D095
:1016D00097D9FA0E00018FEC08F0F9EC58F009D018
:1016E0008FD9F40E0001966F010EE3EC2BF0F9ECAC
:1016F00058F092C0A3F093C0A4F094C0A5F095C098
:10170000A6F00BD08CD909D00201AD51070AD8E060
:101710000F0ADEE0010AE4E0F5D70201AC2900017E
:10172000A06F05D0D890A633A533A433A333A02F40
:10173000F9D701D074D9A3C062F0240E1FEC67F072
:101740009EC062F01F0E1FEC67F0260E9CEC65F049
:10175000A76F0C0E0201AC1906E1070EAD1909E0E6
:10176000080EAD1906E00B0EAC1906E1070EAD1917
:1017700003E10001A78702D00001A797A785A7C0B2
:1017800062F0260E1FEC67F0310E9CEC65F0A76F3F
:10179000F80EA717030EA7135AD91FEC67F00A0E0D
:1017A0000001626F370E1FEC67F0120E0201C419C0
:1017B00025E1070EAD1903E0080EAD1913E1310E56
:1017C0009CEC65F0A76FA79F42D91FEC67F0400E15
:1017D0000001626F2F0E1FEC67F00001626B300E8C
:1017E0001FEC67F0090E0201AD1908E1310E9CEC07
:1017F00065F0A76FA78F2BD91FEC67F0330E9CEC19
:1018000065F0A76FA79DA781B3C2A0F0010EA01736
:10181000060EA16FD890A037A12FFCD7A051A71317
:10182000A7C062F0330E1FEC67F0B3C2A0F0010E48
:101830000001A017D890A037D890A035FF0A1D0B43
:10184000A76FA7C062F03B0E1FEC67F0F2D8200E26
:101850001FEC67F09FC262F0210E1FEC67F0FDD80D
:101860001FEC67F00001626B0E0E1FEC67F00001C9
:10187000626B0F0E1FEC67F0120E0201C41954E1E7
:10188000090EAD191AE1800E935D130E9459610E85
:101890009559330E965911E39305F70E9459CB0ED3
:1018A00095593C0E965909E2020ECBD81FEC67F011
:1018B000640EC4D81FEC67F022D0090EAD191BE1ED
:1018C000800E935D1A0E9459700E9559180E965904
:1018D00012E3410E935DDD0E94594A0E95591F0E89
:1018E000965909E2020EADD81FEC67F07F0EA6D81C
:1018F0001FEC67F004D0030EA4D81FEC67F0090EAC
:101900000201AD190AE1B30508E18FD81FEC67F0B9
:10191000190E9AD81FEC67F007D087D81FEC67F034
:101920001D0E92D81FEC67F095D81FEF67F097C295
:101930006DF098C26EF099C26FF09AC270F00FEC21
:1019400052F09BC26DF09CC26EF09DC26FF09EC2C1
:1019500070F04FEC51F06DD8250E1FEC67F09FC270
:1019600062F0260E1FEC67F00A0E9CEC65F0A76F84
:101970009F0EA7170201C739E846E00B0001A71325
:10198000A7C062F00A0E1FEC67F0C80E0001A76F37
:101990000201AF5102E00001A789A7C062F0300E3A
:1019A0001FEC67F00001A26B0ED0A20EA225D96E2B
:1019B000DA6A020EDA22DF50626FA251280F1FECA2
:1019C00067F00001A22B0201AA510001A25DEDE324
:1019D0000201AA5108E0AA0510090001626F270E52
:1019E0001FEC67F005D00001626B270E1FEC67F05B
:1019F000000162693E0E1FEC67F032D81FEF67F0FE
:101A0000A3C092F0A4C093F0A5C094F0A6C095F036
:101A10001200F00B0001A111A011626F1200000171
:101A2000A36BA46BA56BA66B1200650E0001626F21
:101A30003A0C0201A0510001626F12000001626FB6
:101A40003A0C0001626F360C0001626F3B0CA7C0BC
:101A500062F0310C00016269120C0001626B0D0C26
:101A6000000162693F0C0001C86BC96B616B606B60
:101A7000F1EC67F00001C36FC84BC92BC3C0C0F0C5
:101A8000C16BC3512AEC20F0C0D9F1EC67F0A4D9A6
:101A9000CA6BABD9F1EC67F07CD9CA65FAD7C4C080
:101AA00065F0C5C066F0C6C067F0C7C068F0C3C0C7
:101AB00069F088EC5AF0A9D9F1EC67F08DD9C3C070
:101AC000BCF0BD6BBC51BD6FBC6B9FD9F1EC67F036
:101AD00083D9C351BC27000EBD23BCC060F0BDC07C
:101AE00061F08CEC6AF0BCC0BEF0BDC0BFF08DD917
:101AF000F1EC67F071D9C351ABEC5AF00001CA6B3D
:101B000074D9F1EC67F045D9CA65FAD7C4C060F062
:101B1000C5C061F0C6C062F0C7C063F08DEC69F06B
:101B2000CA6B63D9F1EC67F034D9CA65FAD7C4C07F
:101B300060F0C5C061F0C6C062F0C7C063F096EC4B
:101B400069F0CA6BCA51AC0F59D9F1EC67F0DF6E7E
:101B50002ED9CA65F7D7BEA105D0AC0E6B6F6C6BE2
:101B600011EC62F0CA6BCA51AC0F48D9F1EC67F0C6
:101B7000DF6E1DD9CA65F7D7BEA305D0AC0E6B6F5B
:101B80006C6B41EC62F0CA6BCA51AC0F37D9F1EC07
:101B900067F0DF6E000144D917D9CA65F5D7BEA535
:101BA00005D0AC0E6B6F6C6B9CEC64F0CA6BCA51C9
:101BB000AC0F24D9F1EC67F0DF6E000131D904D904
:101BC000CA65F5D7BEA905D0AC0E6B6F6C6BF9EC8E
:101BD00061F0CA6BCA51AC0F11D9F1EC67F0DF6E3E
:101BE00000011ED9F1D8CA65F5D7BEAB05D0AC0E41
:101BF0006B6F6C6B87EC64F00DD9F7D8F1EC67F084
:101C0000C8D8CA65FAD7BEA70AD0C4C060F0C5C09C
:101C100061F0C6C062F0C7C063F0D7EC67F0CA6B72
:101C2000CA51AC0FEBD8F1EC67F0DF6E0001F8D8C9
:101C3000CBD8CA65F5D7BEAF05D0AC0E6B6F6C6B59
:101C40006AEC66F0CA6BCA51AC0FD8D8F1EC67F0F9
:101C5000DF6E0001E5D8B8D8CA65F5D7BFA105D0B9
:101C6000AC0E6B6F6C6B5AEC66F0D4D8BED8F1EC4E
:101C700067F08FD8CA65FAD7BEAD0AD0C4C060F08D
:101C8000C5C061F0C6C062F0C7C063F02EEC68F05A
:101C9000BCD8F1EC67F0A0D8C35120EC5CF0000197
:101CA000C26B010EC26501D021D0AFD8F1EC67F054
:101CB00093D8C351010ED8B4000E656FC251C3EC66
:101CC0005FF0A3D8F1EC67F087D8C3C066F0C251CB
:101CD00096EC61F09FD889D8F1EC67F05AD8CA65C4
:101CE000FAD7A3D8F2EC63F0C22BDBD7C26B1D0E80
:101CF000C26501D034D08ED878D8F1EC67F049D8DD
:101D0000CA65FAD7C4C065F0C5C066F0C6C067F042
:101D1000C7C068F0C251020F35EC5BF07BD865D8C4
:101D2000F1EC67F036D8CA65FAD77FD8020FF2EC2B
:101D300063F06BD8F1EC67F04FD8C3C066F0C251C6
:101D4000020F96EC61F061D8F1EC67F045D8C3C0A2
:101D500065F0C251020FC3EC5FF0C22BC8D755D853
:101D6000F1EC67F039D8C35129EC62F04ED8F1ECB0
:101D700067F032D8C35110EC67F00001C02904E1CC
:101D8000C12902E1C06BC16BC0C0AAF0C1C0ABF0F9
:101D90001200DF6E0001C84BC92BCA51C40FD96EA7
:101DA000DA6ADF50C027000EC123CA2B030C0001E2
:101DB000C84BC92BCA51AC0FD96EDA6ADF50C027A5
:101DC000000EC123CA2B070CD96EDA6ADF50C02778
:101DD000000EC123CA2B0F0C0001C36FC84BC92BC7
:101DE000C351C027000EC123000CCA51C40FD96EC5
:101DF000DA6AC8C060F0C9C061F01200D96EDA6A50
:101E0000C8C060F0C9C061F01200C8C060F0C9C0AD
:101E100061F01200C46BC56BC66BC76BCA6B120056
:101E2000C84BC92BCA51AC0F1200C4C063F0C5C067
:101E300064F0C2511200EEC0D9FFEFC0DAFFDECF6E
:101E4000F3F0DDCFF4F0000120EE02F0B0D9DECFE8
:101E5000F5F0DDCFF6F0010EF76FF869F3C0C5F0CD
:101E6000F4C0C6F006EC39F0F86FF8BF8BD1F96B0F
:101E7000070EF96501D086D1F951020D280EF32421
:101E8000D96E020EF420DA6EDECF60F0DDCF61F0A5
:101E9000F5C062F0F6C063F075EC47F06051611177
:101EA00001E06DD1B10EF8257DD96BEC47F0F5CF8F
:101EB000F0F0F9C0F1F0010EF26FF12B02D0D890E2
:101EC000F237F12FFCD70001F251F01501E157D1A3
:101ED000F76B26D10F013891929051D10F013891B3
:101EE00092804DD192800F01388149D1F951F2E0B1
:101EF000010AF4E0030AF6E012D00F01389392923F
:101F00003ED10F01389392823AD192820F013883E9
:101F100036D1F951F2E0010AF4E0030AF6E0010AD1
:101F20002ED10F01389592942AD10F0138959284C1
:101F300026D192840F01388522D1F951F2E0010AAD
:101F4000F4E0030AF6E0EBD70F013897929617D129
:101F50000F013897928613D192860F0138870FD1DF
:101F6000F951F2E0010AF4E0030AF6E0D8D79298BA
:101F700006D1928804D1F951FAE0010AFAE0020A86
:101F8000FED00F01389B929AFAD00F01389B928AAB
:101F9000F6D0928A0F01388BF2D0F951F2E0010AA3
:101FA000F4E0030AF6E0BBD70F013C919690E7D02E
:101FB0000F013C919680E3D096800F013C81DFD0E9
:101FC000F951F2E0010AF4E0030AF6E0A8D70F01A4
:101FD0003C939692D4D00F013C939682D0D09682B7
:101FE0000F013C83CCD0F951F2E0010AF4E0030A7E
:101FF000F6E095D70F013B959594C1D00F013B9525
:102000009584BDD095840F013B85B9D0F951F2E09C
:10201000010AF4E0030AF6E082D70F013C9596949A
:10202000AED00F013C959684AAD096840F013C85D2
:10203000A6D0F951F2E0010AF4E0030AF6E06FD706
:102040000F013A9B949A9BD00F013A9B948A97D0A8
:10205000948A0F013A8B93D0F951F2E0010AF4E02F
:10206000030AF6E05CD70F013B9B959A88D00F01DD
:102070003B9B958A84D0958A0F013B8B80D0F95188
:10208000F2E0010AF4E0030AF6E049D70F013B9FB2
:10209000959E75D00F013B9F958E71D0958E0F0147
:1020A0003B8F6DD0F951F2E0010AF4E0030AF6E04B
:1020B00036D70F013B9D959C62D00F013B9D958CBF
:1020C0005ED0958C0F013B8D5AD0F951F2E0010A98
:1020D000F4E0030AF6E023D7929E51D0928E4FD0BF
:1020E000F951FAE0010AFAE04AD7929C48D0928C62
:1020F00046D0F951FAE0010AFAE041D7939C3FD06B
:10210000938C3DD0F951FAE0010AFAE038D7939E5A
:1021100036D0938E34D0F951FAE0010AFAE02FD785
:10212000F85101E1E3D6010A01E1F3D6030A01E126
:1021300004D7010A01E114D7070A01E11CD7010AFB
:1021400001E12BD7030A01E13BD7010A01E14BD79B
:102150000F0A01E15BD7010A01E16BD7030A01E134
:102160007BD7010A8CE0070A9DE0010AAEE0030A72
:10217000B7E0010ABEE01F0AC5E0010ACCE0000199
:10218000F92B76D6F75157EC24F0DECFF0F0DDCF07
:10219000F1F020EE06F00BD8F0C0DEFFF1C0DEFF5C
:1021A000DD6A1200F66EF76AF60EF7221200EE51A3
:1021B000D926EF51DA221200DF6F100E0001E36F13
:1021C000E16BE00E606F616B636B626B656B010EC0
:1021D000646FB1EC64F05ED9B1EC64F05AEC3FF09E
:1021E0004DEC3FF0B1EC64F0DF0506E1E0511F0B70
:1021F0008009E06F8ED904D0E0511F0B4009E06FD9
:10220000FC0EE017E30EE017F90E68D9E0C0DFFF1F
:10221000E32B39D95FEC3FF048EC3FF0CDEC53F0C5
:10222000040EE327E26B29EEDAF0DFAC3FD0E28F59
:102230005EEC43F017E2E28D29EED8F0DF882AEE5B
:10224000C4F0DE2A000EDD222AEEC4F0DECFDBF081
:10225000DDCFDCF02AEE86F0DF50DB19DC1106E181
:1022600054D9E29D29EED8F0DF9820D02AEEC4F0B0
:102270000AEE86F0EF50DD6FDE6BDE50DD5DDE5086
:10228000DE59EFE2E2CAE8FF010FE8CFE2FA2AEEF8
:1022900087F00AEEE2F0DE50EE5C08E336D91CEC83
:1022A00043F0000903E1F5EC05F0DBD729EED8F0A7
:1022B000DFA204D0E28B29EED8F0DF92E2992AEE79
:1022C0008BF0DF5003E0D951DA1113E1F00EE21781
:1022D0000101DB5106E008D9020EDB27E251DB19D0
:1022E00010D90101DA510AE0FFD8DB2BE251DB19EA
:1022F00004D0F1EC46F0DB6FE21903D9F90E0001CE
:10230000EDD8E2C0DFFFE32BBED8DE0E626F090E10
:10231000636F656B020E646FCDEC53F0020EE32722
:102320002AEE8BF0DF500EE0D951DA110BE0F90EF6
:10233000606F0B0E616FE30E626F010E636F44EC12
:102340001CF028D02AEE8BF0DF5024E10101D95196
:1023500009E0F90E0001606F0B0E616FE30E626F12
:10236000E3EC60F00101DB5109E0F90E0001606F60
:102370000B0E616FE30E626FC9EC60F00101DA5180
:1023800009E0F90E0001606F0B0E616FE30E626FE2
:1023900003EC65F0F90E0001A1D8D6C0DFFFE32BF6
:1023A000D951DA1118E06FD8D7C062F0D8C063F005
:1023B000D9C064F0DAC065F0CDEC53F0D7C0A0F01E
:1023C000D8C0A1F0D9C0A2F070D897D87ED8CEECF2
:1023D0002AF0D95119D02AEE8BF0DF5016E0EA0E20
:1023E000606F0A0E616FE10E626F636B44EC1CF06C
:1023F000EA0EA06F0A0EA16FE1C0A2F056D879D8FC
:1024000064D8CEEC2AF0E151E327DEC96BF0DFC9D6
:102410006CF0E0C96DF0E1C96EF0E351F00F6F6F41
:10242000490E706F000E716B19EC3FF0F90E606F82
:102430000B0E76EC05F0100E646FCDEC53F03FD828
:10244000CA6F020ECB6FF90ECC6F0B0ECD6FE3C0CF
:10245000CEF08DEC12F017D80BEC56F048EC3FF0B4
:10246000CDEC53F0040EE327F00EDB6FDC69E35193
:10247000DD6FDE6BDB51DD27DC51DE23DDC0C8FA0A
:10248000DEC0C9FA1200F90EE325606F616B0B0E16
:1024900061231200F90E606F0B0E616F636B626B4C
:1024A000010E656F0F0E646F0F0CA36BDEC9A4F0F5
:1024B000DFC9A5F0E0C9A6F0E1C9A7F01200020E3D
:1024C000C86F0A0EC96FCA0E1200A96FE3C0AAF046
:1024D000F90EAB6F0B0EAC6FAD6B1200E325D96E2E
:1024E000DA6A0B0EDA2212000001E2510F0BDB6FE9
:1024F0001200020EA86F0A0E1200120EA86F0A0E2A
:102500001200F00BDB19E26F1200000EE8CFE2FAC6
:10251000000C29EED8F0DF8012000101656B646BBE
:10252000626B606B616BC8C0A0F0C9C0A1F0100EF7
:102530000001A26F010EA36F000EA46F010EA56F24
:1025400026EC31F0CE51CF6FD06B0F0ECF27000E9F
:10255000D023040ED16FD035D033CF33D12FFBD75A
:10256000CF510101636F635104E1010E636F626B30
:102570000AD0CEC0CFF00F0E0001CF17010ED8A4A5
:10258000000E0101626F62052EE1646B6351100D54
:10259000F350F00F656F18D0200E010164251AD991
:1025A000100E6425E96EEA6A010EFAD80101655140
:1025B0000001CC25E96E000ECD21EA6EEF50CF1957
:1025C000DF6E0101642B652B6351C6D80101655193
:1025D000FDD8CF51D15DD251800AD36FD051800A3E
:1025E000D35940E2D9D70001CE51CC25CF6F000E90
:1025F000CD21D06FCE510F0BCF5D0101606F000177
:10260000D051D8A0D0050101616F656BE8D8656134
:102610000CD065516025D96E000E6121DA6E300E46
:10262000C4D8EA22DFCFEFFF09D0D9D8651904E179
:10263000B0D8800EDF6E02D0ACD8DF6A652B0F0EEB
:102640006565E4D7656B200E6525C4D8000E652549
:10265000E96EEA6A010EA4D8300E0101A6D889D825
:102660006565F1D7500E0001606F010E616F4DEC92
:102670003FF0B1EC64F00101656B34D00101646B93
:10268000400E6425B1D8655167D8CCC0D1F0CDC01B
:10269000D2F090D864510001D125E96E000ED2210C
:1026A000EA6EEF50D36F500E010164256ED8EA2216
:1026B000EF500001D319DF6E0101642B0F0E64652A
:1026C000DFD7500E0001606F010E616F5AD83FD8FE
:1026D000CDEC53F0500E8C6F010E72D876EC65F095
:1026E0000101652B0001CF69D069010163516ED8EA
:1026F00061D865510001D36FD46BD151D35DD451F2
:10270000800AD56FD251800AD559B8E30101656BB3
:10271000400E652569D8200E6525E96EEA6A010E2E
:102720003FD8500E0101652530D823D86565F0D714
:10273000400E00018C6F010E43D876EC65F0CAC0E4
:1027400060F0CBC061F01DD802D8CDEF53F0636FBD
:10275000656B100E646F100C0001CF6FD06BCF3B18
:10276000D03BF00ED017CF510F0BD013F00ECF1778
:10277000F00CEA22EF500001CF19DF6E0101652B4A
:102780000F0C400E626F010E1200E96EEA6A010E34
:102790001200300E6525D96EDA6A010EDA221200B7
:1027A000EA22EF500001CF6F12006525E96EEA6A58
:1027B000010E1200CF51D127D051D22301011200B6
:1027C0008D6FC8C08EF0C9C08FF012000001D16FAC
:1027D000D26B1200D96EDA6A010EDA221200000101
:1027E000CE510F0B01011200D96EDA6A010EDA2206
:1027F000120000017B6F796B7A6B080E7B192EE15A
:1028000026EEA2F0DE50DE10D8B412001BD95D0E09
:102810007025D96E040E7121DA6EDF5014E1A1C665
:10282000E8FFFF0FE8CFA1F602D9DECFA4F6DDCF97
:10283000A5F6FDD8DE6ADD6A26EEA1F0DF5009D9E3
:10284000DE6ADD6A05D026EEA4F0DE06000EDD5A53
:1028500026EEA2F0DE06000EDD5A000C26EEA2F0F7
:10286000250EDE5C020EDE5846E2200E7B1945E1A5
:1028700026EEA1F0060EDF603ED0E4D805D9000EAA
:10288000DF6A26EEA2F0DE2ADD2226EEA4F006EEB6
:10289000A1F0EF50020D840EF324E96E060EF42031
:1028A000EA6EDECFEEFFDDCFEDFF7069716926EED7
:1028B000A4F0F1D826EEA2F0DECF74F0DDCF75F0F3
:1028C0007251745F7351755B705174277151752328
:1028D00026EEA1F0DF50BDD874C0DEFF75C0DDFF6D
:1028E000A1C6E8FF010FE8CFA1F6000EE8CFA4F6DD
:1028F000E8CFA5F677D0796975D0A4D8C5D87BC0C4
:10290000DFFF26EEA2F0DE2A000EDD2226EEA4F086
:10291000DE2ADD2283D865EC5AF026EEA2F0605163
:10292000DE5C6151DE582EE3010E7A6F77D865ECDC
:102930005AF060517C6F22D085D8B2D87C51725F3A
:10294000000E9AD8DF50746F69D865EC5AF0E40E27
:10295000756FFF0E766F60517527615176237C513C
:10296000755F000E765B75C0F6FF76C0F7FFF86AFC
:102970000800F550741901E07A6B7C077C5102E085
:102980007A51DAE17A512EE05DD848D865EC5AF0F8
:1029900087D86051725F61516FD8DF6A3FD865ECAC
:1029A0005AF026EEA4F05DD86051705F6151715B02
:1029B0003ED870C0DEFF71C0DDFF26EEA4F051D816
:1029C00026EEA2F068D87051725F7151735B26EEEB
:1029D000A1F0DF503ED872C0DEFF73C0DDFF010EF4
:1029E000E8CFA0F67929D8A41200FAEC62F053C21D
:1029F00060F054C261F0B9EC18F065EC5AF060C0B8
:102A000077F061C078F053C266F054C267F02ED8F8
:102A100077C069F078C06AF023EF4AF0E40E606F87
:102A2000FF0E616F6011D8A4000E626F120026EED7
:102A3000A1F0DF50020D840EF324D96E060EF420AF
:102A4000DA6E120026EEA2F0DECF70F0DDCF71F06C
:102A50001200020D920EF324D96E060EF420DA6EE7
:102A60001200DECF70F0DDCF71F0120066516711F9
:102A7000D8A4000E686F1200735B70517225D96E76
:102A800071517321DA6E12005E0E7025D96E040E3C
:102A90007121DA6E1200DECF72F0DDCF73F012001A
:102AA0005E0E726F040E736F12000001DA69DB694B
:102AB000DC69DD6929EEDBF0DFB00DD16CEC05F0EF
:102AC000030A10E129EEEAF0DF5004E11BD9040902
:102AD000DF6E1200EAC9E8FF020AD8A41200E66A13
:102AE0006EEF3FF029EED8F0DFB43FEF63F029EE50
:102AF000DAF0DFA8E7D029EED8F0DFA042D06FEC03
:102B000028F029E3FFD819EC51F0DECFD4F0DDCF67
:102B1000D5F0D451D66FD551D76FD86BD96B0C0E79
:102B2000D890D637D737D837D937E82EF9D7D6C087
:102B300060F0D7C061F0D8C062F0D9C063F0DCD8D3
:102B4000D5EC4AF082EC08F0EDD805EC5FF0EAD85D
:102B500021EC4FF0B7D084EC69F00101BD51BE11FA
:102B600001E1B0D0000ED3D8C56B01D8ABD00500C1
:102B7000FA6E0101BD51FD6EBE51FE6EFF6AFA5044
:102B800012002AEECCF00AEECAF0DE50EE5C01E252
:102B900084D0B8D80609DF6E010E6BEC35F0000961
:102BA00013E15AEC4CF014EC21F0A851A91105E105
:102BB000B3D8A8D80109DF6E85D0AAEC68F001016E
:102BC000BD51BE11CFE17ED0DE6B3AD0DE510BECB1
:102BD0001AF061EC3DF033E1DE5175EC08F0F7ECF2
:102BE00019F02DE0DE5175EC08F0DE50DA5DDE50B4
:102BF000DB59DE50DC59DE50DD5921E3DE5159EC62
:102C00003DF0DF500F0BD46F2AEED3F0D451DE5CD1
:102C100016E32AEED3F0DE515EEC2EF0EF380F0B08
:102C2000D56FDE50D55D0BE3DE5175EC08F0DECFDD
:102C3000DAF0DECFDBF0DECFDCF0DECFDDF0DE2B56
:102C40002AEEE1F0DE51DE5CC1E2DAC0D4F0DBC096
:102C5000D5F0DCC0D6F0DDC0D7F00C0ED890D4375C
:102C6000D537D637D737E82EF9D7000ED425606F81
:102C7000200ED521616F030ED621626F000ED72181
:102C8000636F3AD8D5EC4AF082EC08F04FD805ECE7
:102C90005FF04CD821EC4FF015D0AAEC68F00101A0
:102CA000BD51BE110FE033D8010EC56F01D80AD057
:102CB0000500FA6E0101BD51FD6EBE51FE6EFF6A48
:102CC000FA5012006EEC48F0D8A412001BD8090983
:102CD000DF6E26EF50F0E4EC08F0D8B4120017D8FD
:102CE000020EC56F0500FA6E0101BD51FD6EBE51A9
:102CF000FE6EFF6AFA5012007D0E646F656B666BA4
:102D0000676B7D0C29EEDAF0DF50F00B120000014A
:102D1000C26BC36BC46B1200CCCAE8FF010FE8CFD3
:102D2000CCFA12002AEEDCF0DF5012002AEEDEF0C0
:102D3000DF5012008F6B63C2A2F164C2A3F1A251F3
:102D4000A311D8A4000EA46F926B31D09251090D3B
:102D5000F3508125886FF4508221896F000E832102
:102D60008A6F88C1F6FF89C1F7FF8AC1F8FF21EE9B
:102D700093F0080E05D9FEE293C160F094C161F0B2
:102D8000855129EC15F0DECF88F1DDCF89F15E0E9B
:102D900088250001626F040E010189210001636F23
:102DA00075EC47F06051611105E00101922B8451EF
:102DB000925DCCE301018451925D01E3ACD0955169
:102DC0009611971101E09CD09851991101E1A3D07F
:102DD0009B51886F896B8551A1C68AF18AC18BF19D
:102DE0008C6B8B5F000E8C5B88518B1903E18951D2
:102DF0008C19D8A490D08529916F906B9B5112E0CB
:102E0000912B9105020D840EF324D96E060E38EC39
:102E100044F003E1010E906F05D026EEA1F0915130
:102E2000DE5CEEE2905177E19C0E0001606F010ED6
:102E30000CEC63F0090E646FB1EC64F00101855194
:102E4000886F896B882B000E8923895114E1070E46
:102E5000885D11E280D8860E8825D96E060E8BD843
:102E60000AE079D8940E8825D96E060E7BD89C6F1F
:102E7000040E8B219D6F8551886F896B020E85D85A
:102E800014E1070E885D11E266D8880E8825D96E98
:102E9000060E71D80AE05FD8960E8825D96E060E08
:102EA00061D89E6F040E8B219F6F8551886F896B4F
:102EB000030E6BD814E1070E885D11E24CD88A0E20
:102EC0008825D96E060E57D80AE045D8980E882571
:102ED000D96E060E47D8A06F040E8B21A16F9C0EF1
:102EE0000001EE6F010EEF6F01D815D00500FA6EEC
:102EF00001019851FD6E9951FE6EFF6AFA50120061
:102F0000010E8F6F86C1D9FF87C1DAFF92C1DFFF43
:102F1000A26BA36BA46B0101A251A311A41118E031
:102F2000A2C160F0A3C161F0A4C162F065EC5AF0E7
:102F300060C08DF161C08EF1A2C166F0A3C167F0DF
:102F4000A4C168F08DC169F08EC16AF023EC4AF02B
:102F500001018F5112008551886F896BD890883795
:102F6000893712008921DA6EDECF8AF1DDCF8BF14D
:102F70005E0E8A2512008921DA6EDE50DE10120004
:102F80000900F5CFDEFFE80612008827000E89232E
:102F900089511200D6D0C45154E023D91EC262F028
:102FA0001FC263F0E1EC61F0DBD865EC5AF0F7D8B2
:102FB000AE6F060ED321AF6FC2C0D9FFC3C0DAFF18
:102FC000DF50B06F00EC3CF0E9EC5EF0C9D865EC86
:102FD0005AF0E5D8F3D8D24BD32BC669C769C45190
:102FE000C86FC96BC651C827C751C923120ECA6F13
:102FF000020ECB6FD251CA5FD351CB5BD890CB318D
:10300000CD6FCA31CC6FC851CC5DC951CD5903E2E7
:10301000B6D8DBD806D0FF0EC425CE6FCF6BFF0E1F
:10302000CF23C229B66F000EC321B76FBFD8C2EC41
:103030003FF096D865EC5AF0ADD8CDD8D8A4200E84
:103040000DD01AC260F01BC261F093D865EC5AF043
:10305000A1D81AC266F01BC267F06ED0686FD0C0EC
:1030600069F0D1C06AF023EF4AF0C45125E0B9D825
:103070001CC262F01DC263F0E1EC61F071D865EC36
:103080005AF08DD89BD8D24BD32B79D8C96FC63183
:10309000C86FC451C85D000EC95903E270D895D8F5
:1030A00003D0C4C0CEF0CF6BC2C0B6F0C3C0B7F07F
:1030B0007DD8C2EC3FF0BDD718C260F019C261F0F4
:1030C00058D865EC5AF066D818C266F019C267F095
:1030D00033D020C260F021C261F04BD865EC5AF0C9
:1030E00059D820C266F021C267F026D022C260F013
:1030F00023C261F03ED865EC5AF04CD822C266F08B
:1031000023C267F019D024C260F025C261F031D823
:1031100065EC5AF03FD824C266F025C267F00CD0A7
:1031200026C260F027C261F024D865EC5AF032D88C
:1031300026C266F027C267F066516711D8A4000E58
:103140008DD70001C551D2E0010A01E124D7030A5D
:10315000C0E0010A8AE0070AD6E0010AE1E01200B5
:10316000A60E606F060E616F6011D8A4200E626F0C
:10317000120060516111D8A4000E626F1200120E8D
:10318000C66F020EC76FD251C65FD351C75BD890CE
:10319000C731120060C0D0F061C0D1F0120060C031
:1031A000D2F061C0D3F0A60ED2251200A60ED22511
:1031B000B86F060ED321B96FCE511200D96E060E2C
:1031C000D321DA6E200EDF6E200CC86FC631CE6FB1
:1031D000C8C0CFF01200A60E666F060E676F6611AC
:1031E0001200A60E606F060E616F12000A0EE12635
:1031F000000EE2224E684F6850685168FDD8FE0EFE
:10320000E36AFE0EE35007D961EC3DF06AE1FE0E81
:10321000E35075EC08F0EBD864E0FE0EE35075EC7B
:1032200008F00AEEBCF0DE50EE5CDE50EE58DE50E8
:10323000EE58DE50EE582DE2BCCA4EF0BDCA4FF03B
:10324000BECA50F0BFCA51F0FE0EE35075EC08F054
:10325000DECF4AF0DECF4BF0DECF4CF0DECF4DF0CC
:103260004E504A5C466E4F504B58476E50504C582B
:10327000486E51504D58496EFE0EE35075EC08F003
:1032800046C0DEFF47C0DEFF48C0DEFF49C0DEFFAC
:1032900006D0FE0EE35075EC08F0D2EC08F0FE0EFE
:1032A000E35075EC08F0FA0ED6EC27F0FB0EB8D818
:1032B000FC0EB6D8FD0EB4D814E3FE0EE35075EC48
:1032C00008F095D80EE0FE0EE35075EC08F0DECF66
:1032D0004EF0DECF4FF0DECF50F0DECF51F08CD885
:1032E000E32AFE0EE32AE3CF46F00F0E466489D7A9
:1032F000FF0EE3046DE1E150FA0F6DD8DECFBCFAAA
:10330000DECFBDFADECFBEFADDCFBFFAFD0EE35051
:103310000DE1FA0EE328FB0EE3CF46F0FF0E465A0E
:10332000FC0EE3CF46F00F0E465A18E3E150FA0FB9
:1033300052D8DECF60F0DECF61F0DECF62F0DECFBC
:1033400063F07D0E00014DEC35F0D5EC4AF052EC07
:1033500035F00C0E46D8E82EFDD720D0FA0EE3CF7C
:103360004EF0FB0EE3CF4FF0FC0EE3CF50F0FD0E1E
:10337000E3CF51F00C0E35D8E82EFDD74EC060F0EB
:103380004FC061F050C062F051C063F07D0E00018B
:103390004DEC35F0D5EC4AF052EC35F0F60E4EC05F
:1033A000E3FFF70E4FC0E3FFF80E50C0E3FFF90E46
:1033B00051C0E3FFE150F60FD96EE2505BEC35F0FF
:1033C000D7EC08F005EC5FF0D7EC08F021EC4FF0FB
:1033D000F50E67EF35F0D96EE250DA6EFF0EDA22A5
:1033E000FF0CD8904E364F36503651361200DE5014
:1033F000DE10DE10DE101200FA0E4EC0E3FFFB0EF0
:103400004FC0E3FFFC0E50C0E3FFFD0E51C0E3FFD1
:10341000FF0EE36A1200120DC00EF324D96E1200E3
:10342000E3CF46F0DE50465812008B6B68518B2577
:10343000D96EDA6A8B51710FE96EEA6ADFCFEFFF5E
:103440008B2B0F0E8B65F2D70A0E426E010E416E6A
:103450008B6BC4D8B5D800D98B65FBD78B6BB0D834
:10346000DF50696F6A6BB10E6925F66EF50E6A2141
:10347000F76EF86A000EF822A3D80800F5CFDFFF38
:103480008B2B0F0E8B65EBD766C060F067C061F0C9
:10349000D0EC39F0420401E184D08B6B98D86929D3
:1034A000D96EBDD86B6F8CD8DF506B19896F8FD8F0
:1034B000CFD8B5D8A4D88A6F8919876F88D86929D9
:1034C000D96EADD89CD8886F7F0E896508D01B0E49
:1034D00089C069F0AFD8816F6A51826F05D0D890EA
:1034E0008935816F826B823781C089F07F0E886554
:1034F00008D01B0E88C069F09DD8836F6A51846F15
:1035000005D0D8908835836F846B843783C088F06A
:103510007F0E8A6508D01B0E8AC069F08BD8856F34
:103520006A51866F05D0D8908A35856F866B86374D
:1035300085C08AF045D884D887198919DF6E47D8A5
:103540006929D96E52D86B296FD887198819DF6E0F
:103550003ED8020E6925D96E48D8020E6B2564D874
:1035600087198A19DF6E33D873D83FD8020E6B25BE
:103570005BD86D6F8B5166256E6F000E67216F6F84
:103580006E29E96E000E6F21EA6EEF50706F58D809
:1035900070196D198719DF6E040E8B270F0E8B655E
:1035A0007DD7710E606F3CEC2AF08B6B17D808D872
:1035B00053D88B65FBD74206425001E04FD712002B
:1035C0008B516625D96E000E6721DA6E12008B5181
:1035D0006625696F000E67216A6F12008B51710FAB
:1035E000D96EDA6ADF50696F1200000E6A21DA6E56
:1035F0008B5166256B6F000E67216C6F12006B6F2D
:103600008B5166256C6F000E67216D6F020E6C2565
:10361000D96E000E6D21DA6EDF506B191200000EAC
:103620006A21DA6EDF501200E96E000E6C21EA6E3C
:10363000EF5012006A6BD89069376A376919120027
:103640008B516625E96E000E6721EA6EEF5012007D
:10365000030E6925D96E12006951DF1A8B2B0F0CEE
:10366000AAD00001A669A769A869A969B0D029EE06
:10367000D8F0DFA41FD0FFD8FDEC60F08C5102E140
:10368000D9D80CE3F8D8FDEC60F00D0E01D0D9D8F4
:10369000E82EFDD7BBD8F9EC58F077D0ECD8FDEC8C
:1036A00060F0B4D8F9EC58F00D0E01D0BDD8E82E7A
:1036B000FDD76BD029EEDAF0DFA889D0D1D8FDECA8
:1036C00060F08C5102E1B6D80CE3CAD8FDEC60F092
:1036D0000D0E01D0B6D8E82EFDD798D8F9EC58F0E9
:1036E00054D0BED8FDEC60F091D8F9EC58F00D0E36
:1036F00001D09AD8E82EFDD748D029EED8F0DFA423
:1037000005D0DBEC08F0FDEC60F008D029EEDAF033
:10371000DFA805D03CEC06F0FDEC60F098D8000185
:10372000A95102E1A1D81FE3A6C0A2F0A7C0A3F04F
:10373000A8C0A4F0A9C0A5F00D0E05D0D890A5335F
:10374000A433A333A233E82EF9D7A2C092F0A3C0CA
:1037500093F0A4C094F0A5C095F07D0E8FEC08F016
:10376000F9EC58F012D0A6C092F0A7C093F0A8C010
:1037700094F0A9C095F07D0E8FEC08F0F9EC58F0AC
:103780000D0E01D051D8E82EFDD792C0A6F093C0FF
:10379000A7F094C0A8F095C0A9F019D092EC16F04B
:1037A000FDEC60F054D8A951BFE15ED8BDE2DBD793
:1037B000000165D80CD06CEC05F001E152D7020A8B
:1037C00001E155D7060A99E0020AE8E0F1D70001C5
:1037D000A951A811A71103E1C80EA65D0AE3CE0EF8
:1037E000A627FF0EA723A823A92329EEDBF0DF805D
:1037F00004D045D829EEDBF0DF90A6C09EF0A7C02C
:103800009FF0A8C0A0F0A9C0A1F0120089C092F05A
:103810008AC093F08BC094F08CC095F07D0E966FAB
:10382000976B986B996B7D0CD89095339433933349
:10383000923312001F0E895DAC0E8A59DF0E8B5930
:103840001200D8908C338B338A338933120089C0AD
:10385000A6F08AC0A7F08BC0A8F08CC0A9F0120017
:103860002AEED8F0DF5012001F0EA65DAC0EA7594D
:10387000DF0EA85912002AEED6F0DF501200A66B18
:10388000A76BA86BA96B120007D96B6F6A6BE0D0AE
:10389000635101E1C5D06A51EED8DE2801E1C0D004
:1038A000FE0E646F65696A51E6D8DF50666F676B1C
:1038B0006451662765516723D30E6625F66EF60EB2
:1038C00067211AEC47F06BC068F0696B6827000E3F
:1038D0006923E2D8685F000E695B69BFA1D06951B6
:1038E00005E1100E685D01E3B9D09AD0B7D0BCD81D
:1038F000030EDF6E6B2BB8D8DF6A6A512CEC27F011
:10390000DFA003D0B1D8000EDB806A512CEC27F089
:10391000DFA203D0A9D8000EDB826A512CEC27F07D
:10392000DFA403D0A1D8000EDB8400016B2B8FD065
:103930009BD8050EDF6E6B2B97D8DF6A6A512CEC93
:1039400027F0DFA603D090D8000EDB806A512CEC64
:1039500027F0DFA803D088D8000EDB826A512CEC58
:1039600027F0DFAA03D080D8000EDB847DD8DF509B
:103970000101D86FDAD778D8060EDF6E6B2B2AEEEE
:10398000D4F081D86B2B1AEC6BF0800AA00F05E302
:103990001AEC6BF0800A600F04E3000165D8200E7A
:1039A00005D0000161D81AEC6BF03F0BDF6EBDD77C
:1039B0005BD8070EDF6E6B2B57D8DF6A6A512CEC91
:1039C00027F0DFAE03D050D8000EDB806A512CEC1C
:1039D00027F0DFACAAD748D8000EDB82A6D709ECC7
:1039E00021F06A5148D84FD8A0D73ED80A0EDF6ED2
:1039F0006B2B3AD8DF6A6A515DEC2DF0DFA003D063
:103A000033D8000EDB806A515DEC2DF0DFA203D0CD
:103A10002BD8000EDB8228D8DF500101D76F85D765
:103A20006A5129D8DF50020ADAE0010A01E15FD7C2
:103A3000070AD7E0010A01E17BD7030A9CE0010AEB
:103A4000B7E00F0ACEE0010ACCE0030ACEE06A2B11
:103A50002AEE8BF0DE506A5D01E21AD76251D96E10
:103A6000DA6A6BC0DFFF12006B516025D96E000E61
:103A70006121DA6E1200030D8C0EF324D96E0A0E4A
:103A8000F420DA6E12006B516025E96E000E6121A0
:103A9000EA6EDFCFEFFF12006251D96EDA6ADF50B3
:103AA00012009E96C6AECED0C69E406A0101F2ECD0
:103AB0005FF0DECF04F0DDCF05F004C0D9FF05C014
:103AC000DAFF010EDF6EC56BC66B12000101BAB3DF
:103AD0001200B8C1C5F1B9C1C6F1B8C1D9FFB9C1A9
:103AE000DAFFDF503F6E20EE01F0B851D926B95110
:103AF000DA22DECFC7F1DDCFC8F1050EB827000E00
:103B0000B923E90EB81907E1020EB91904E1E40E70
:103B1000B86F020EB96FBA91B651B81904E1B75136
:103B2000B91901E1BA83C580020E406E020CC5AC22
:103B300004D015D0040EDEEF5FF0D8900101E03123
:103B4000056EDF31046E0450C96EDFA103D00B0E89
:103B5000406E0B0C030E406E030CC5AC03D001018C
:103B6000BC2BE8D7C5820101E051060B046E056A43
:103B7000F00E0410DF6F0550E06FDF81010ED46F8F
:103B8000D3D70101D40514E0C7C1D9FFC8C1DAFFFA
:103B9000DECFDFF1DDCFE0F120EE03F06DD8DECF38
:103BA00091F2DDCF92F220EE02F066D8DF503E6E49
:103BB000DFC1C9FFDFA1CED7050E406E050CC5AC35
:103BC00006D00101BC2BC59C050EDEEF5FF03E0662
:103BD0003E2807E155EC67F03F2E01D02BD0C5827F
:103BE000A3D74FD8DF50C96E0201914B922B120020
:103BF000C5AC07D00101BC2B040EDEEC5FF0C59C08
:103C00001200C586080E406E080C080E406EC58670
:103C1000080C37D8C9CFDFFF0201914B922B3E062B
:103C200004E0C59A060E406E03D0C58A4CEC67F0DE
:103C3000C5881200000EDEEF5FF00101BC2B060EFE
:103C4000DEEF5FF0405001E141D7010AC8E0030A0E
:103C500098E0010AB4E0070AEDE0010AC9E0030AAE
:103C6000D4E0010AE7E00F0AD4E0020A01E15FD7DD
:103C7000010A01E172D7E1D7C751D926C851DA222A
:103C8000120091C2D9FF92C2DAFF1200AC6BA7C03A
:103C9000ADF0A8C0AEF0C6D0D9D82CEC27F0DF909C
:103CA000D5D82CEC27F0DF92D1D82CEC27F0DF947C
:103CB000CDD82CEC27F0DF96C9D82CEC27F0DF9874
:103CC000C5D82CEC27F0DF9AC1D82CEC27F0DF9C6C
:103CD000BDD82CEC27F0DF9EB9D85DEC2DF0DF903D
:103CE000B5D85DEC2DF0DF92BBD80AEE8BF0EF502B
:103CF000030D8C0EF324E96E0A0EF420EA6EDFCF7A
:103D0000EFFF70D0ADC060F0AEC061F0C6EC63F004
:103D100060C0ADF061C0AEF099D83BEC1DF0DF683B
:103D200078D0ADC06EF0AEC06FF095EC26F06EC0EE
:103D3000ADF06FC0AEF06DD0ADC060F0AEC061F060
:103D4000BDEC55F060C0ADF061C0AEF062D0ADC06A
:103D50009EF0AEC09FF0E7EC2BF09EC0ADF09FC090
:103D6000AEF057D0ADC060F0AEC061F073EC6AF059
:103D700060C0ADF061C0AEF04CD0ADC09EF0AEC042
:103D80009FF073EC24F09EC0ADF09FC0AEF041D028
:103D9000ADC06BF0AEC06CF056EC63F06BC0ADF034
:103DA0006CC0AEF036D0ADC09EF0AEC09FF0F2EC6D
:103DB0002CF09EC0ADF09FC0AEF02BD0ADC069F02E
:103DC000AEC06AF072EC2DF069C0ADF06AC0AEF022
:103DD00020D0010EAC6FA951A725AD6F000EA82110
:103DE000AE6F9AD73DD8AD4BAE2BDF50020A8AE0BA
:103DF000010A97E0070AA0E0010AA9E0030AB2E07D
:103E0000010ABBE00F0AC4E0010AD8E0030ACBE0D4
:103E1000E0D71CD83BEC1DF0DE2804E026D8DF609C
:103E200001D018D80001A951A725AA6F000EA8211A
:103E3000AB6FAA51AD5DAB51AE5903E2AC5101E19C
:103E40002BD7ADC0A7F0AEC0A8F012002AEE8BF0C1
:103E5000DF5012008BCAE8FF010FE8CF8BFA120087
:103E6000ADC0D9FFAEC0DAFF12002AEE8BF0100C05
:103E70000201B6A506D0800E0001A96F030EA86F3F
:103E8000030CB6C2AAF0030E0001AA1705E0800ECB
:103E9000A96F040EA86F040C8A86A851A91104E129
:103EA000CCD81CEC0BF006D0A8C09EF0A9C09FF0A7
:103EB0001CEC0BF00201AB050DE1010E0001626F7D
:103EC000220E1FEC67F0C3D81FEC67F0B3D81FECCD
:103ED00067F010D0C8C262F0120E1FEC67F0C9C2C2
:103EE00062F0130E1FEC67F0B2D81FEC67F0A2D897
:103EF0001FEC67F00201B683E70EB6170001A85168
:103F0000A91105E182D8050ED4EC35F02BD00201C1
:103F1000AB0509E1010E0001656F000E666F060E2C
:103F2000D4EC35F01FD0000E81D8D4EC35F0000170
:103F3000A851AA6FA951AB6FAC6BAD6B0C0ED890AA
:103F400081D8E82EFCD758D87CEC16F0D5EC4AF096
:103F500082EC08F00201BB5105EC5FF00201BB519D
:103F600021EC4FF05DD83AE0C05102E153D80BE3A9
:103F700039D84DEC35F0D5EC4AF00C0EE8EC21F0D8
:103F8000E82EFCD713D0BDC2AAF0BEC2ABF0BFC2B0
:103F9000ACF0C0C2ADF00C0ED890000153D8E82EA2
:103FA000FBD72AD87CEC16F0D5EC4AF060C0AEF016
:103FB00061C0AFF062C0B0F063C0B1F0AEC06DF0F0
:103FC000AFC06EF0B0C06FF0B1C070F00201BC5174
:103FD00005EC5FF00201BC5121EC4FF00001A86B31
:103FE000A96B1200BDC260F0BEC261F0BFC262F038
:103FF000C0C263F000017D0CAAC060F0ABC061F0EC
:10400000ACC062F0ADC063F01200ABC265F0000E50
:10401000666F000CBD29FF0EBE590F0EBF5912006E
:104020000201BD51BE11BF11C01112000001656F28
:10403000666F050C0001626B410C000E9F6F040E51
:104040009E6F040CAA37AB37AC37AD3712000001B6
:10405000626B400C0001A96FE4CAE8FF010A02E1AB
:1040600027EC57F0340EE8CFE8FADAD891EC6AF092
:10407000000EADD8CED8B4D8E8CFC8FAE8CFC9FA88
:104080009DD8B7D8E8CFC6FAE8CFC7FA010EE8CF77
:10409000CFFA000EE8CFD0FAE8CFC4FAE8CFC5FADD
:1040A000E8CFE2FAE8CFE3FA9BD829EEDBF0DF9421
:1040B0008ED8E8CFD8F9E8CFD9F9070EE8CFCBFAF8
:1040C000000EE8CFCAFA010EE8CFCDFAE8CFCCFA5D
:1040D000FF0EE8CFD4FA2AEE88F0A9C0DFFF000E69
:1040E000E8CFEAF9100EE8CFE1FAFA0E00015BD84A
:1040F000F4EC21F0F3EC52F0020EE8CFFCF9000EE4
:10410000E8CFF4F9EA0EE8CFF5F9060EE8CFF6F9B4
:10411000370EE8CFF7F9010EE8CFD5FA000EE8CF59
:10412000D3FAAEEC46F0000EE8CF89FAE8CF8AFA6F
:10413000FD0E606F090E0CEC63F0690E646FB1EC5C
:1041400064F060D8D00EE8CF7AFA070EE8CF7BFA99
:10415000880EE8CF7CFA130EE8CF7DFA700EE8CF18
:104160007EFA170EE8CF7FFAD00EE8CF84FA070E5A
:10417000E8CF85FA200EE8CF87FA400EE8CF86FA1E
:10418000000EE8CF80FA400EE8CF81FA000EE8CFAB
:1041900082FA400EE8CF83FA000EE8CFE9FA9F6B6F
:1041A0009E6B5FEF2BF0796F0A0E7A6F7B6BEA0ED6
:1041B0007C6F060E7D6F370E7E6F370CE8CFE2F90D
:1041C000E8CFE3F9E8CFE4F9E8CFE5F91200E8CF6A
:1041D000DAF9E8CFDBF9E8CFDCF9E8CFDDF9120056
:1041E000E8CFBCFAE8CFBDFAE8CFBEFAE8CFBFFA15
:1041F0001200E8CFDEF9E8CFDFF9E8CFE0F9E8CF49
:10420000E1F91200E80EE8CF78FA030EE8CF79FA68
:10421000030CFF0EE8CFD1FA000EE8CFD2FA000C63
:104220002AEEE8F0DF5012000201B6A506D0800E9B
:104230000001A96F030EA86F030CB6C2ABF0030E0A
:104240000001AB1705E0800EA96F040EA86F040CE7
:104250000201AB5109E1400E0001AA6505D0800EB4
:10426000A96F020EA86F020C0201BA51A8EC69F006
:104270001DEC20F01CEC0BF00201AB051EE1AAC006
:1042800062F0220E1FEC67F00A0E9CEC65F0B76F2F
:10429000F00EB717B787B7C062F00A0E1FEC67F0D1
:1042A000400E0001626F1FEC67F01AEC20F01FEC6B
:1042B00067F094D8D4EC35F008D027EC20F01FEC50
:1042C00067F01AEC20F01FEC67F00201AB5105E13A
:1042D000AAC062F0000E1FEC67F041EC6BF0800E9C
:1042E00096EC6AF00001B86B0BD0B851A825D96ED6
:1042F000000EA921DA6EDF5096EC6AF00001B82BAF
:10430000AA51B85DF2E33FEC6BF00201B681E70E13
:10431000B61722EC63F0030ED4EC35F000016D6BA0
:104320006E6B0A0E6F6F706B0201BA5105EC5FF095
:104330000201BA5121EC4FF010EC20F045E0C051E1
:1043400003E10AEC20F00BE3F2EC1FF04DEC35F04A
:10435000D5EC4AF00C0E3CD8E82EFDD71DD0BDC2DE
:10436000ABF0BEC2ACF0BFC2ADF0C0C2AEF00C0E3E
:10437000D8900001AB37AC37AD37AE37E82EF8D761
:10438000ABC060F0ACC061F0ADC062F0AEC063F035
:104390007CEC16F0D5EC4AF060C0B3F061C0B4F02C
:1043A00062C0B5F063C0B6F0B3C06DF0B4C06EF0DB
:1043B000B5C06FF0B6C070F00201BC5105EC5FF003
:1043C0000201BC5121EC4FF00001A86BA96B120057
:1043D000D89060376137623763371200ABC265F03F
:1043E000010E0001666F010C7BC093F27CC094F259
:1043F0007DC095F27EC096F2A80E0201976F610E05
:10440000986F996B9A6B500E9B6FC30E9C6F9D6B50
:104410009E6B010EAB6F070EAD6F010EAE6FB46FEA
:10442000B56BA06B080E9F6F0C0EAC6F010EAF6FDB
:10443000B06FB36BC10EA26F940EA36FC10EA46FC9
:10444000030EAA6F340EA16FB66BB76B79C0B8F2CA
:104450007AC0B9F2B16BB26B800EC56FC66F980EA1
:10446000BD6F3A0EBE6FBF6BC06B020EC76F0B0EF7
:10447000C86F120EC96FC26BC36BC15123E157ECF9
:104480005BF00201BA6F57EC5BF00201BB6F57ECB7
:104490005BF00201BC6F1A0E0001606FBF0E616F0E
:1044A000626B0201BB5124EC5EF09A0E606FBD0E90
:1044B000616F626B0201BC5124EC5EF0010E0201DF
:1044C000C16F0BD0BA51A8EC69F00201BB51A8EC46
:1044D00069F00201BC51A8EC69F0AFEC61F0000E8C
:1044E0000001656F010E666FD4EC35F04FD8BEEC5D
:1044F00033F0420E24EC0DF01FEC67F03B0E9CEC09
:1045000065F07F6F7FBBFAD7230E626F0C0E1FEC36
:1045100067F01E0E0001626F0D0E1FEC67F0AA0E11
:104520000001626F1F0E1FEC67F08F0E0001626FBB
:10453000350E1FEC67F000016269320E1FEC67F068
:10454000400E0001626F310E1FEC67F0010E00019A
:10455000656F666F000ED4EC35F093866186F19E30
:104560000001806B05D081A602D0939603D0802BEA
:1045700080AFF9D76196F18E6269230E1FEC67F068
:10458000420E9CEC65F00201C46F120093C26DF004
:1045900094C26EF095C26FF096C270F01200EEC039
:1045A000D9FFEFC0DAFFDECFF2F0DDCFF3F000018C
:1045B00020EE02F0C7D8DECFF5F0DDCFF6F0010E29
:1045C000F46FF869F2C0C5F0F3C0C6F006EC39F03C
:1045D000F76FF5C0AEF0F6C0AFF0010EB06F66EC4D
:1045E00039F084EC4BF0000908E0F5C066F0F6C045
:1045F00067F065EC40F06651F86FF7AFF8BF92D006
:10460000F46B6CD0F85102E189908CD089808AD00B
:10461000F85102E1899286D0898284D0F85102E172
:10462000899480D089847ED0F85102E189967AD02D
:10463000898678D0F85102E1899874D0898872D03F
:10464000F85102E1899A6ED0898A6CD0F85102E162
:104650008D9068D08D8066D0F85102E18D9262D045
:104660008D8260D0F85102E18C945CD08C845AD059
:10467000F85102E18D9456D08D8454D0F85102E166
:104680008B9A50D08B8A4ED0F85102E18C9A4AD046
:104690008C8A48D0F85102E18C9E44D08C8E42D056
:1046A000F85102E18C9C3ED08C8C3CD0F85102E158
:1046B000899E38D0898E36D0F85102E1899C32D05B
:1046C000898C30D0F85102E18A9C2CD08A8C2AD077
:1046D000F85102E18A9E26D08A8E24D0F75192E0CA
:1046E000010A96E0030A9AE0010A9EE0070AA2E0A6
:1046F000010AA6E0030AAAE0010AAEE00F0AB2E04E
:10470000010AB6E0030ABAE0010ABEE0070AC2E005
:10471000010AC6E0030ACAE0010ACEE01F0AD2E09D
:10472000010AD6E0F45157EC24F0DECFF0F0DDCFF3
:10473000F1F020EE06F006D8F0C0DEFFF1C0DEFF9B
:10474000DD6A1200EE51D926EF51DA221200EEC0D6
:10475000D9FFEFC0DAFFDECFF2F0DDCFF3F0010ECC
:104760000001F46FF669F2C0C5F0F3C0C6F006ECC4
:1047700039F0F56FF5BF80D05AD0000E80B0010E31
:10478000F66F79D0000E80B2010EF66F74D0000E75
:1047900080B4010EF66F6FD0000E80B6010EF66F7A
:1047A0006AD0000E80B8010EF66F65D0000E80BA98
:1047B000010EF66F60D0000E84B0010EF66F5BD074
:1047C000000E84B2010EF66F56D0000E83B4010EB7
:1047D000F66F51D0000E84B4010EF66F4CD0000E6F
:1047E00082BA010EF66F47D0000E83BA010EF66F43
:1047F00042D0000E83BE010EF66F3DD0000E83BC8A
:10480000010EF66F38D0000E80BE010EF66F33D069
:10481000000E80BC010EF66F2ED0000E81BC010E82
:10482000F66F29D0000E81BE010EF66F24D0F5512F
:10483000A4E0010AA7E0030AAAE0010AADE0070A22
:10484000B0E0010AB3E0030AB6E0010AB9E00F0ADA
:10485000BCE0010ABFE0030AC2E0010AC5E0070AA2
:10486000C8E0010ACBE0030ACEE0010AD1E01F0A4A
:10487000D4E0010AD7E0F46BF45109E0F45117D801
:10488000DECFF0F0DDCFF1F01FD8DD6A120017D8CF
:10489000F651A76FA86BA7BFA80721D8EEEC41F08F
:1048A000A60EF06F060EF16F0FD840EF3BF0020D31
:1048B000550EF324D96E020EF420DA6E1200A60E05
:1048C000A56F060EA66F120020EE06F0EE51D92657
:1048D000EF51DA22F0C0DEFFF1C0DEFF1200AA6B5A
:1048E0000A0EA96F0A0CA7D8DF50A66F9E4B9F2B0C
:1048F000A2D8FF0EDE14A26FFF0EDE14A36FFF0E10
:10490000DE14A46F000EDE14A56FA2C092F0A3C047
:1049100093F0A4C094F0A5C095F0640E8FEC08F05D
:10492000F9EC58F092C0A2F093C0A3F094C0A4F0A8
:1049300095C0A5F0030E9E27000E9F237CD8DF5064
:10494000A16F9E4B9F2B606BA65101EC67F0000995
:104950001DE1A2C060F0A3C061F0A4C062F0A5C0D8
:1049600063F0D5EC37F0000902E06AD805E126ECE7
:104970001FF02CEC27F0DF8EA15131EC61F0000923
:1049800005E126EC1FF02CEC27F0DF8C26EC1FF065
:104990002CEC27F0DFAE40D026EC1FF02CEC27F0FB
:1049A000DFAC3AD02AEECEF0100EDF6018D048D837
:1049B00011E037D817EC61F0A1C060F0A65114ECFB
:1049C0003DF043D8D3EC65F0010E606FA6513BEC8F
:1049D00038F021D0656BA651C3EC5FF01CD030D805
:1049E00015E01FD8100F17EC61F0A1C060F0A651C0
:1049F000100F14EC3DF029D8100FD3EC65F0010E28
:104A0000606FA651100F3BEC38F005D0656BA651D6
:104A1000100FC3EC5FF01ED89EC09EF09FC09FF0A9
:104A20001200A2C060F0A3C061F0A4C062F0A5C0F3
:104A300063F0A65112009EC0D9FF9FC0DAFF12009A
:104A4000A251A311A411A5111200616BC70E606FD2
:104A5000A651120029EEDBF0DF861200B2D89E4B81
:104A60009F2BAD51C1EC65F0F9E2A96BAA6BAB6B62
:104A7000AC6BA86B2D0EAD1906E1010EA86FA1D885
:104A80009E4B9F2B03D02B0EAD19F9E0300EAD19C4
:104A90001DE197D89E4B9F2BA251A31104E0100E4D
:104AA000A219A3110DE1780EAD1903E0580EAD194E
:104AB00007E1A36B100EA26F84D89E4B9F2B06D0EC
:104AC000A251A31103E1A36B080EA26FA251A3117F
:104AD00003E1A36B0A0EA26FAD513DEC65F006E356
:104AE000AD517EEC68F0C90FAD6F06D0AD51D4EC7E
:104AF00066F031E3300EAD5FAD51A46FA56BA251EE
:104B0000A45DA551800AA66FA351800AA65923E28D
:104B1000A2C092F0A3C093F0000E93BFFF0E946F5B
:104B2000956FA9C096F0AAC097F0ABC098F0ACC042
:104B300099F0F9EC58F0AD519225A96F000E932130
:104B4000AA6F000E9421AB6F000E9521AC6F39D87F
:104B50009E4B9F2BC1D7A051A1110EE0FF0E9E25A9
:104B6000A46FFF0E9F21A56FA0C0D9FFA1C0DAFFDF
:104B7000A4C0DEFFA5C0DDFFA8511AE0A9C0A4F0C3
:104B8000AAC0A5F0ABC0A6F0ACC0A7F0A41FA51F9B
:104B9000A61FA71FA42B000EA523A623A723A4C0EE
:104BA0009EF0A5C09FF0A6C0A0F0A7C0A1F0000C89
:104BB000A9C09EF0AAC09FF0ABC0A0F0ACC0A1F00D
:104BC00012009EC0D9FF9FC0DAFFDF50AD6F120008
:104BD000A26F210E0001A219D8A41200020EA76F25
:104BE000A86BA36BA46BA56BA66BA30E606F616B28
:104BF000A851030D9EC0A0F09FC0A1F0F350A027C4
:104C0000F450A1230D0EA025626F000EA121636F49
:104C10001DEC4FF0CDEC53F0A3C092F0A4C093F084
:104C2000A5C094F0A6C095F0640E8FEC08F0F9ECE6
:104C300058F092C0A3F093C0A4F094C0A5F095C022
:104C4000A6F0A351A411A511A61140E0A3C060F0E5
:104C5000A4C061F0A5C062F0A6C063F0D5EC37F047
:104C6000000939E14CD8F3503ED856D848D8040E44
:104C7000A027000EA123F35036D84ED840D846D8EE
:104C800032D8DF500F0B5009DF6E39D83FD82BD800
:104C9000F00EDF1634D80A0EA027000EA123F35021
:104CA00022D8E70EDE6E030EDD6E29D8110EA02786
:104CB000000EA123F35017D8DF68010E656FA851CD
:104CC000A725C3EC5FF02AEC25F005D0656BA85151
:104CD000A725C3EC5FF0A82B040EA86582D729EEA8
:104CE000DBF0DF86040CA027F450A123A751120D9E
:104CF000F350A025D96EF450A121DA6E1200A8510C
:104D0000120DB80EA06F080EA16F1200090EA02799
:104D1000000EA123F3501200A3C0DEFFA4C0DEFFEB
:104D2000A5C0DEFFA6C0DEFF1200A3D8DF500F0B28
:104D3000736F9FD8DF50706F70390F0B766F6E4BAB
:104D40006F2B97D8DECF71F0DDCF72F0020E6E2799
:104D5000000E6F236EC074F06FC075F06E4B6F2B3A
:104D600029EEDAF0DFAC67D07FD8DF38070B22EC12
:104D700068F000090CE171C060F072C061F06DEC88
:104D800063F0000904E126EC1FF066D8DF8076515D
:104D9000F2EC66F000090EE12AEEDFF0DE50765DFF
:104DA00009E32AEEE0F07651DE5C04E326EC1FF026
:104DB00053D8DF827351E8EC68F0000904E126EC77
:104DC0001FF04AD8DF8426EC1FF046D8DFA43FD07E
:104DD00026EC1FF041D8DFA23AD026EC1FF03CD8D9
:104DE000DFA035D071C06BF072C06CF03DD8DF38F9
:104DF000070B6D6F94EC68F073511CEC6AF029EEB0
:104E0000DBF0DF880001765122EC6AF02DD800013A
:104E1000DF500F0B04E1000EE8CFCAFA08D024D807
:104E2000DF500F0B706FFF0E700770C0CAFA29EECB
:104E3000DBF0DF8A0CD026EC1FF00ED8DF9026ECDA
:104E40001FF00AD8DF9226EC1FF006D8DF946EC060
:104E50006EF06FC06FF01200030D8D0EF324D96E4B
:104E60000A0EF420DA6E120074C0D9FF75C0DAFFA2
:104E700012006EC0D9FF6FC0DAFF1200050EE126E6
:104E8000000EE22229EEDBF0DFB027D029EEDBF0C6
:104E9000DFA423D0FF0EE36A09D0FF0EE3503BEC02
:104EA0001DF0020EDE1807E0FF0EE32A2AEE8BF05B
:104EB000FF0E7CD8F2E32AEE8BF0FF0EE350DE18F3
:104EC0000CE126EC1FF03BEC1DF0020EDF6E35EC22
:104ED0001FF0DF6002D02AEC1FF029EEDBF0DFA428
:104EE00034D05FD802E157D80FE34CD87D0E0001D3
:104EF0004DEC35F0D5EC4AF052EC35F00C0EF1ECFF
:104F000019F0E82EFCD707D023D84DEC35F0D5ECBE
:104F10004AF052EC35F0FB0E4EC0E3FFFC0E4FC0E2
:104F2000E3FFFD0E50C0E3FFFE0E51C0E3FFE15072
:104F3000FB0FD96EE2505BEC35F0DFEC2BF005ECAB
:104F40005FF0DFEC2BF021EC4FF0FA0E67EF35F05D
:104F5000C0CA4EF0C1CA4FF0C2CA50F0C3CA51F025
:104F60000C0ED8904E364F3650365136E82EF9D7C3
:104F70004EC060F04FC061F050C062F051C063F0AD
:104F800000017D0CC0CA60F0C1CA61F0C2CA62F003
:104F9000C3CA63F01200DE28FF0EDE580F0EDE5883
:104FA00012002AEEC0F0030EDB501200E3CF46F0F1
:104FB000DE50465C1200E65229EEDBF0DFB08BD00B
:104FC000EAC9E8FF020A02E1E4EC67F088D861E38D
:104FD00042EC5AF0516E0D0E5126FF0E51C0E3FF08
:104FE0002AEEC8F0E350476E486ADE50475CDE5058
:104FF00048583DE3010E6BEC35F0000934E15AEC02
:105000004CF014EC21F061EC4CF02DE182EC16F048
:105010000109DF6ECDCAE8FF010FE8CFCDFA2AEE15
:10502000CDF0DFB0A5EF5FF02AEED3F0DF5002E164
:10503000A5EF5FF02AEECDF0DF50476E486A2AEE0A
:10504000CBF0DF50506E516A502A000E512247506B
:10505000501805E14850511802E1A5EF5FF01CEC33
:1050600043F0A5EF5FF0EDEC50F0A5EF5FF084ECBE
:1050700069F00101BD51BE1102E1A5EF5FF087ECBF
:1050800016F0040EC56F02D8A5EF5FF00500FA6EAA
:105090001AD025D802E3A5EF5FF029EEDBF0DFB0F0
:1050A000A5EF5FF084EC69F00101BD51BE1102E192
:1050B000A5EF5FF0000E87EC16F0C56B02D8A5EFE8
:1050C0005FF00500FA6E0101BD51FD6EBE51FE6E2E
:1050D000FF6AFA50120084EC69F0A5EF5FF02AEE47
:1050E000CDF00AEECBF0DE50EE5C1200EEC0D9FF40
:1050F000EFC0DAFFDECFF2F0DDCFF3F0010E0001FA
:10510000F46FF2C0C5F0F3C0C6F006EC39F0F56FED
:10511000F5BF5DD0B10EF525D2EC10F06BEC47F089
:10512000F5A455D00001F46B38D0000E61EC60F0AE
:105130002FD0010E61EC60F02BD0020E61EC60F01C
:1051400027D0030E61EC60F023D0040E61EC60F018
:105150001FD0050E61EC60F01BD0060E61EC60F014
:1051600017D0160E61EC60F013D0070E61EC60F002
:105170000FD0110E61EC60F00BD0190E61EC60F0F5
:1051800007D01B0E61EC60F003D01A0E61EC60F0EA
:1051900065C0F6F066C0F7F01AD0F551C6E0010A16
:1051A000C8E0030ACAE0010ACCE0060ACEE0030A1E
:1051B000D0E0010AD2E00F0AD4E0010AD6E0030AE7
:1051C000D8E0010ADAE0070ADCE0010ADEE00001CB
:1051D000F4510AE0F45157EC24F0DECFF0F0DDCFCB
:1051E000F1F013D8DD6A12005FEC24F0F6C0A7F0EE
:1051F000F7C0A8F06FEC24F0EEEC41F0A60EF06FD3
:10520000060EF16F02D840EF3BF020EE06F0EE51B3
:10521000D926EF51DA22F0C0DEFFF1C0DEFF120026
:10522000010E0001F26F89D85ED895EC60F000099C
:1052300049E06CD858D895EC60F0000943E07DD87F
:10524000DECF9EF055D82EEC25F09E51F36F20EE68
:1052500002F06AD8F1EC34F04BD82EEC25F09E51D8
:10526000F46F6BD8DECFF0F058D84AD865EC5AF01E
:10527000020E6019611126E1F35108E163D85DD88F
:1052800057D875EC47F0605161111CE13FD8DECF73
:10529000F0F043D835D865EC5AF0020E6019611170
:1052A00011E1F45108E14ED831D842D875EC47F0FD
:1052B0006051611107E1F4C062F0F3511FEC67F037
:1052C0000001F26BF251A1EC46F0DECFF0F0DDCF41
:1052D000F1F020EE06F028D8DA22F0C0DEFFF1C0AF
:1052E000DEFFDD6A1200DECF66F0DDCF67F0120070
:1052F000DDCF9FF0A06BA16BA36B100EA26F100C03
:1053000060516111D8A4200E626F120020EE02F0ED
:10531000EE51D926EF51DA221200DDCFF1F0F0C0C4
:1053200060F0F1C061F01200EE51D926EF51120089
:10533000DECF62F0DDCF63F01200EEC0D9FFEFC028
:10534000DAFF1200490E606FFF0E616F120084ECED
:1053500063F0F6EC6AF0260E0001646FC00E656F14
:10536000B3EC59F0DFEC6AF0F28EF28C010E000122
:10537000616FB40E606FF1EC67F004015A6F5B6B04
:10538000010E0001616FB50E606FF1EC67F0040172
:10539000596F59515B275A2902E15B292DE033EC03
:1053A0000DF0AAC055F4ABC056F4040155515A197A
:1053B00003E156515B192CE0040E2AEC20F053D87F
:1053C000BFEC4FF04AD811EC62F052D88CEC6AF086
:1053D00004015C6B5D6B5CC460F05DC461F0000156
:1053E0006269FFEC5BF004015C4B5D2BB60E5C5D0B
:1053F000010E5D590DE2EFD7000E2AEC20F033D8F4
:10540000BFEC4FF02AD811EC62F032D88CEC6AF085
:105410001ED887EC42F0B0EC18F065EC5AF060C092
:1054200057F461C058F4EBEC18F0D8A4200E686F64
:1054300057C469F058C46AF023EC4AF075EC5DF08B
:10544000F9EC5FF03DEC36F08BEC4FF0F7D7A60EA1
:1054500000016B6F060E6C6F1200450E00016B6F42
:10546000040E6C6F1200450E6F6F040E706F120009
:10547000616B010E606F010C6051D96EDA6A0D0E1E
:1054800060D8635186D80E0E5CD8D92A635181D872
:105490000F0E57D8020ED92663517BD80C0E51D867
:1054A000030ED926635175D84150DF1A7F0E41642F
:1054B0000CD01B0E41C061F0626BD890613762372F
:1054C0006119646F6251656F05D0D8904134646F83
:1054D000656B653764C041F06051D96EDA6A53D8A4
:1054E000040E43D8D92A4FD8050E3FD8020E44D80F
:1054F000060E3BD8030E40D8070E37D8040E3CD812
:10550000080E33D8050E38D8090E2FD8060E34D819
:105510000A0E2BD8070E30D80B0E27D8080E2CD821
:105520000C0E23D8090E28D80D0E1FD80A0E24D829
:105530000E0E1BD80B0E20D80F0ED9266151DF1A84
:105540001200D926DF50616F626BB10E6125F66ED5
:10555000F50E6221F76EF86A000EF8220800F5CF0A
:1055600063F06051D96EDA6A1200D9266151DF1AF0
:105570006051D96EDA6A1200D926DF50616F60512E
:10558000D96EDA6A1200DF50616F6051D96EDA6A43
:105590001200DF1A6051D96EDA6A1200B46BB56B73
:1055A000A2390F0BB36F010EB46F31D05BD819EC79
:1055B0003FF068D876EC65F0B56B75D8B451AE6F36
:1055C000AF6BAE3BAF3BF00EAF17AE510F0BAF134F
:1055D000F00EAE17A0C0B0F0A1C0B1F0AE51B02730
:1055E000AF51B123B551B027000EB123F00EB02555
:1055F000E96EFF0EB121EA6EEF50B26F4CD8B219CE
:10560000DF6EAA2BB52B0F0EB565D7D7B42BB451CF
:10561000B35DCCE24FD8D8B40F0C24D819EC3FF0CE
:1056200031D876EC65F0B56B18D03DD8B351100D7C
:10563000A0C0AEF0A1C0AFF0F350AE27F450AF233E
:10564000B551AE25E96E000EAF21EA6EEF50B06F96
:1056500022D8B019DF6EAA2BB52B2CD8AE51B55D70
:10566000E4E31200A4C06BF0A5C06CF0A6C06DF01E
:10567000A7C06EF0B4C06FF0010E706FADC071F0D6
:10568000A3511200CA0E8C6F020E8D6FA8C08EF04F
:10569000A9C08FF01200CA0EB525E96EEA6A020EA3
:1056A000EA22EF501200AA51AB25D96E000EAC21B0
:1056B000DA6E1200A2C0AEF00F0EAE170F0C9EC035
:1056C00092F09FC093F0946B956BE80E966F030E6B
:1056D0007AD8F9EC58F092C0C0FA93C0C1FA94C0DD
:1056E000C2FA95C0C3FA9E519F111EE168D8A8EC7A
:1056F00069F029EEDBF0DF94A86B10D0A8513BECE9
:105700001DF0020EDE1809E1A8513BEC1DF0DF6828
:105710008BCAE8FFFF0FE8CF8BFAA82B2AEE8BF09D
:10572000DE50A85DEBE3120029EEDBF0DF8429EE0A
:10573000DAF0DFA81200D1EC27F003E1CBEC27F080
:105740000CE3C2EC27F07CEC16F0D5EC4AF00C0E22
:10575000E8EC21F0E82EFCD71CD0C0CAA0F0C1CAEA
:10576000A1F0C2CAA2F0C3CAA3F00C0ED890A03711
:10577000A137A237A337E82EF9D7A0C060F0A1C0A7
:1057800061F0A2C062F0A3C063F07CEC16F0D5EC2F
:105790004AF060C0A4F061C0A5F062C0A6F063C08A
:1057A000A7F0A4C06DF0A5C06EF0A6C06FF0A7C0B2
:1057B00070F005D805EC5FF002D821EF4FF02AEE2B
:1057C000DBF0DF501200976F986B996B120080D856
:1057D000DF50A56F9E4B9F2B7BD8FF0EDE14A16F71
:1057E000FF0EDE14A26FFF0EDE14A36F000EDE1498
:1057F000A46FA1C092F0A2C093F0A3C094F0A4C083
:1058000095F0640E8FEC08F0F9EC58F092C0A1F01E
:1058100093C0A2F094C0A3F095C0A4F0030E9E27FD
:10582000000E9F23A1C060F0A2C061F0A3C062F08F
:10583000A4C063F0D5EC37F0000905E126EC1FF0B9
:105840002CEC27F0DF86A5510F0BF2EC66F0000977
:1058500005E126EC1FF02CEC27F0DF88A539070BBB
:10586000DEEC68F0000905E126EC1FF02CEC27F0D7
:10587000DF8A26EC1FF02CEC27F0DFA821D026ECE5
:105880001FF02CEC27F0DFA61BD026EC1FF02CEC31
:1058900027F0DFAA15D0A539070BA06FA0C0E3FA47
:1058A000A1C060F0A2C061F0A3C062F0A4C063F028
:1058B000A5510F0B646FCAEC67F029EEDBF0DF8EA9
:1058C000010E0101DB6F9EC09EF09FC09FF0010C96
:1058D0009EC0D9FF9FC0DAFF1200010E0001F26FD7
:1058E00072D87BD8F0C060F0F1C061F080EC29F094
:1058F00065EC5AF060C0F8F061C0F9F064D8ADEC26
:105900004EF065EC40F066C0F3F067C0F4F05BD891
:10591000DECFF6F0DDCFF7F0F95145E1040EF85D8A
:1059200042E2F4BF05D0F4513EE1110EF35D3BE2DB
:10593000F4AF05D0FD0EF35DFF0EF45934E348D803
:105940002B0EDE180EE044D82D0EDE1805E1F951BD
:1059500008E1020EF85D05E23BD8DF50D4EC66F0BA
:1059600022E3010EF56F0BD0F551F625D96E000E2E
:10597000F721DA6EDF50D4EC66F009E3F52BF55130
:10598000F06FF16BF851F05DF951F159EDE3F5511C
:10599000F819F91103E0F805F91105E1F351E3EC09
:1059A0006AF00001F26BF251A1EC46F016D820EE3D
:1059B00006F0EE51D926EF51DA22F0C0DEFFF1C039
:1059C000DEFFDD6A1200EEC0D9FFEFC0DAFF120081
:1059D000F6C0D9FFF7C0DAFF1200DECFF0F0DDCF5E
:1059E000F1F012007AD8DF50A56F9E4B9F2B75D82F
:1059F000FF0EDE14A16FFF0EDE14A26FFF0EDE1489
:105A0000A36F000EDE14A46FA1C092F0A2C093F0A9
:105A1000A3C094F0A4C095F0640E8FEC08F0F9ECEC
:105A200058F092C0A1F093C0A2F094C0A3F095C02A
:105A3000A4F0030E9E27000E9F23A551F2EC68F000
:105A400000091EE1A1C060F0A2C061F0A3C062F035
:105A5000A4C063F0D5EC37F0000904E126EC1FF098
:105A60002CD8DF80A55131D8DFA00AD0A5510BEC8E
:105A70001AF061EC3DF004E126EC1FF01ED8DF8245
:105A800026EC1FF01AD8DFA010D026EC1FF015D896
:105A9000DFA20BD0A1C060F0A2C061F0A3C062F091
:105AA000A4C063F0A55163EC65F0010E0101D96F4C
:105AB0009EC09EF09FC09FF0010C030D8E0EF3243C
:105AC000D96E0A0EF420DA6E1200120DC90EF324FC
:105AD000D96E080EF420DA6E12009EC0D9FF9FC066
:105AE000DAFF120069C0D9FF6AC0DAFFDF506B6FBE
:105AF000694B6A2B6B39E842070B0101DE6F00012D
:105B00006B390F0B446E6B510F0B0101DD6FDD51D3
:105B10000001606FC30E00016025F66EF76AF60E95
:105B2000F7226BEC47F0F5500101DC6F44503AEC82
:105B300058F00101DC510001606F0001616B400E03
:105B40006125D96EDA6A020EDA2260C0DFFF030E29
:105B5000606504D001D002D0FE0E6027612B070ED5
:105B60006165EDD701D0EBD70101DE510001666F11
:105B700000016605D8A403D0020E686F01D0686BDF
